{"abi":[{"type":"function","name":"DATA_URL","inputs":[],"outputs":[{"name":"","type":"string","internalType":"string"}],"stateMutability":"view"},{"type":"function","name":"DATA_URL_VGRANT","inputs":[],"outputs":[{"name":"","type":"string","internalType":"string"}],"stateMutability":"view"},{"type":"function","name":"proof","inputs":[],"outputs":[{"name":"","type":"tuple","internalType":"struct Proof","components":[{"name":"seal","type":"tuple","internalType":"struct Seal","components":[{"name":"verifierSelector","type":"bytes4","internalType":"bytes4"},{"name":"seal","type":"bytes32[8]","internalType":"bytes32[8]"},{"name":"mode","type":"uint8","internalType":"enum ProofMode"}]},{"name":"callGuestId","type":"bytes32","internalType":"bytes32"},{"name":"length","type":"uint256","internalType":"uint256"},{"name":"callAssumptions","type":"tuple","internalType":"struct CallAssumptions","components":[{"name":"proverContractAddress","type":"address","internalType":"address"},{"name":"functionSelector","type":"bytes4","internalType":"bytes4"},{"name":"settleChainId","type":"uint256","internalType":"uint256"},{"name":"settleBlockNumber","type":"uint256","internalType":"uint256"},{"name":"settleBlockHash","type":"bytes32","internalType":"bytes32"}]}]}],"stateMutability":"pure"},{"type":"function","name":"setBlock","inputs":[{"name":"blockNo","type":"uint256","internalType":"uint256"}],"outputs":[],"stateMutability":"nonpayable"},{"type":"function","name":"setChain","inputs":[{"name":"chainId","type":"uint256","internalType":"uint256"},{"name":"blockNo","type":"uint256","internalType":"uint256"}],"outputs":[],"stateMutability":"nonpayable"},{"type":"function","name":"verifyGithub","inputs":[{"name":"webProof","type":"tuple","internalType":"struct WebProof","components":[{"name":"webProofJson","type":"string","internalType":"string"}]},{"name":"account","type":"address","internalType":"address"}],"outputs":[{"name":"","type":"tuple","internalType":"struct Proof","components":[{"name":"seal","type":"tuple","internalType":"struct Seal","components":[{"name":"verifierSelector","type":"bytes4","internalType":"bytes4"},{"name":"seal","type":"bytes32[8]","internalType":"bytes32[8]"},{"name":"mode","type":"uint8","internalType":"enum ProofMode"}]},{"name":"callGuestId","type":"bytes32","internalType":"bytes32"},{"name":"length","type":"uint256","internalType":"uint256"},{"name":"callAssumptions","type":"tuple","internalType":"struct CallAssumptions","components":[{"name":"proverContractAddress","type":"address","internalType":"address"},{"name":"functionSelector","type":"bytes4","internalType":"bytes4"},{"name":"settleChainId","type":"uint256","internalType":"uint256"},{"name":"settleBlockNumber","type":"uint256","internalType":"uint256"},{"name":"settleBlockHash","type":"bytes32","internalType":"bytes32"}]}]},{"name":"","type":"address","internalType":"address"},{"name":"","type":"int256","internalType":"int256"}],"stateMutability":"view"},{"type":"function","name":"verifyIssue","inputs":[{"name":"webProof","type":"tuple","internalType":"struct WebProof","components":[{"name":"webProofJson","type":"string","internalType":"string"}]},{"name":"repo","type":"string","internalType":"string"},{"name":"issueId","type":"string","internalType":"string"}],"outputs":[{"name":"","type":"tuple","internalType":"struct Proof","components":[{"name":"seal","type":"tuple","internalType":"struct Seal","components":[{"name":"verifierSelector","type":"bytes4","internalType":"bytes4"},{"name":"seal","type":"bytes32[8]","internalType":"bytes32[8]"},{"name":"mode","type":"uint8","internalType":"enum ProofMode"}]},{"name":"callGuestId","type":"bytes32","internalType":"bytes32"},{"name":"length","type":"uint256","internalType":"uint256"},{"name":"callAssumptions","type":"tuple","internalType":"struct CallAssumptions","components":[{"name":"proverContractAddress","type":"address","internalType":"address"},{"name":"functionSelector","type":"bytes4","internalType":"bytes4"},{"name":"settleChainId","type":"uint256","internalType":"uint256"},{"name":"settleBlockNumber","type":"uint256","internalType":"uint256"},{"name":"settleBlockHash","type":"bytes32","internalType":"bytes32"}]}]},{"name":"","type":"int256","internalType":"int256"},{"name":"","type":"string","internalType":"string"},{"name":"","type":"string","internalType":"string"}],"stateMutability":"view"},{"type":"error","name":"FailedInnerCall","inputs":[]}],"bytecode":{"object":"0x6080604052348015600e575f5ffd5b506121e08061001c5f395ff3fe608060405234801561000f575f5ffd5b506004361061007b575f3560e01c806387cea3ae1161005957806387cea3ae146101025780639bb2bd7f1461011e578063faf924cf1461013c578063ffbc56381461015a5761007b565b80635af76f231461007f578063643204ce146100b257806384eec816146100d0575b5f5ffd5b6100996004803603810190610094919061116d565b610176565b6040516100a9949392919061153a565b60405180910390f35b6100ba61038b565b6040516100c7919061158f565b60405180910390f35b6100ea60048036038101906100e591906115d9565b6103a7565b6040516100f993929190611642565b60405180910390f35b61011c600480360381019061011791906116a4565b61044c565b005b610126610529565b604051610133919061158f565b60405180910390f35b610144610562565b60405161015191906116cf565b60405180910390f35b610174600480360381019061016f91906116e9565b610577565b005b61017e610ed3565b5f6060805f6040518060400160405280601d81526020017f68747470733a2f2f6170692e6769746875622e636f6d2f7265706f732f00000081525087876040516020016101cd939291906117ab565b60405160208183030381529060405290505f6101fb828a6101ed90611843565b61065790919063ffffffff16565b90505f6102466040518060400160405280600b81526020017f61737369676e65652e6964000000000000000000000000000000000000000000815250836106da90919063ffffffff16565b90505f6102916040518060400160405280600c81526020017f73746174655f726561736f6e00000000000000000000000000000000000000008152508461080e90919063ffffffff16565b90505f6102dc6040518060400160405280600381526020017f75726c00000000000000000000000000000000000000000000000000000000008152508561080e90919063ffffffff16565b90506040516020016102ed9061189f565b604051602081830303815290604052805190602001208260405160200161031491906118b3565b604051602081830303815290604052805190602001201461036a576040517f08c379a000000000000000000000000000000000000000000000000000000000815260040161036190611913565b60405180910390fd5b610372610562565b8383839850985098509850505050505093509350935093565b6040518060600160405280602381526020016120da6023913981565b6103af610ed3565b5f5f5f6103e66040518060600160405280602381526020016120da60239139876103d890611843565b61065790919063ffffffff16565b90505f6104316040518060400160405280600981526020017f6769746875625f69640000000000000000000000000000000000000000000000815250836106da90919063ffffffff16565b905061043b610562565b868294509450945050509250925092565b7f2ae215ce9fde588adfdea92976dc9aa45aa006a0f63942d8f9f21bd4537972a35f1c73ffffffffffffffffffffffffffffffffffffffff166387cea3ae826040518263ffffffff1660e01b81526004016104a79190611940565b6020604051808303815f875af11580156104c3573d5f5f3e3d5ffd5b505050506040513d601f19601f820116820180604052508101906104e7919061198e565b610526576040517f08c379a000000000000000000000000000000000000000000000000000000000815260040161051d90611a03565b60405180910390fd5b50565b6040518060400160405280601d81526020017f68747470733a2f2f6170692e6769746875622e636f6d2f7265706f732f00000081525081565b61056a610ed3565b610572610943565b905090565b7f2ae215ce9fde588adfdea92976dc9aa45aa006a0f63942d8f9f21bd4537972a35f1c73ffffffffffffffffffffffffffffffffffffffff1663ffbc563883836040518363ffffffff1660e01b81526004016105d4929190611a21565b6020604051808303815f875af11580156105f0573d5f5f3e3d5ffd5b505050506040513d601f19601f82011682018060405250810190610614919061198e565b610653576040517f08c379a000000000000000000000000000000000000000000000000000000000815260040161064a90611a03565b60405180910390fd5b5050565b61065f610f05565b5f61066b845f5f61095a565b905061067a8160200151610a9d565b610691838260400151610cac90919063ffffffff16565b6106d0576040517f08c379a00000000000000000000000000000000000000000000000000000000081526004016106c790611a92565b60405180910390fd5b8091505092915050565b5f5f835f01515111610721576040517f08c379a000000000000000000000000000000000000000000000000000000000815260040161071890611afa565b60405180910390fd5b5f6040518060400160405280855f015181526020018481525060405160200161074a9190611c0f565b60405160208183030381529060405290505f5f600373f4e4fdca9d5d55e64525e314391996a15f7ec60061077e9190611c5c565b73ffffffffffffffffffffffffffffffffffffffff16836040516107a29190611ce7565b5f60405180830381855afa9150503d805f81146107da576040519150601f19603f3d011682016040523d82523d5f602084013e6107df565b606091505b50915091506107ee8282610cd3565b50808060200190518101906108039190611d27565b935050505092915050565b60605f835f01515111610856576040517f08c379a000000000000000000000000000000000000000000000000000000000815260040161084d90611afa565b60405180910390fd5b5f6040518060400160405280855f015181526020018481525060405160200161087f9190611c0f565b60405160208183030381529060405290505f5f600273f4e4fdca9d5d55e64525e314391996a15f7ec6006108b39190611c5c565b73ffffffffffffffffffffffffffffffffffffffff16836040516108d79190611ce7565b5f60405180830381855afa9150503d805f811461090f576040519150601f19603f3d011682016040523d82523d5f602084013e610914565b606091505b50915091506109238282610cd3565b50808060200190518101906109389190611dc0565b935050505092915050565b61094b610ed3565b610953610ed3565b8091505090565b610962610f05565b5f5f5f73f4e4fdca9d5d55e64525e314391996a15f7ec6006109849190611c5c565b73ffffffffffffffffffffffffffffffffffffffff168686866040516020016109af93929190611eba565b6040516020818303038152906040526040516109cb9190611ce7565b5f60405180830381855afa9150503d805f8114610a03576040519150601f19603f3d011682016040523d82523d5f602084013e610a08565b606091505b5091509150610a178282610cd3565b505f81806020019051810190610a2d9190611fc6565b9050604051806060016040528082600260048110610a4e57610a4d61200d565b5b6020020151815260200182600360048110610a6c57610a6b61200d565b5b60200201518152602001825f60048110610a8957610a8861200d565b5b602002015181525093505050509392505050565b610aa5610cf7565b15610b1957610ad5816040518060e0016040528060ae81526020016120fd60ae9139610cac90919063ffffffff16565b610b14576040517f08c379a0000000000000000000000000000000000000000000000000000000008152600401610b0b90612084565b60405180910390fd5b610ca9565b610b21610d14565b15610be957610b2e610d7c565b73ffffffffffffffffffffffffffffffffffffffff16632505a3bd826040518263ffffffff1660e01b8152600401610b66919061158f565b602060405180830381865afa158015610b81573d5f5f3e3d5ffd5b505050506040513d601f19601f82011682018060405250810190610ba5919061198e565b610be4576040517f08c379a0000000000000000000000000000000000000000000000000000000008152600401610bdb90612084565b60405180910390fd5b610ca8565b610bf1610d97565b73ffffffffffffffffffffffffffffffffffffffff16632505a3bd826040518263ffffffff1660e01b8152600401610c29919061158f565b602060405180830381865afa158015610c44573d5f5f3e3d5ffd5b505050506040513d601f19601f82011682018060405250810190610c68919061198e565b610ca7576040517f08c379a0000000000000000000000000000000000000000000000000000000008152600401610c9e90612084565b60405180910390fd5b5b5b50565b5f81518351148015610ccb575081805190602001208380519060200120145b905092915050565b606082610ce857610ce382610db2565b610cf0565b819050610cf1565b5b92915050565b5f610d00610df6565b80610d0f5750610d0e610e0e565b5b905090565b5f6001461480610d245750600a46145b80610d2f5750608946145b80610d3b575061014446145b80610d4757506101e046145b80610d53575061210546145b80610d5f575061a4b146145b80610d6b575061a4ba46145b80610d77575061e70846145b905090565b5f73565dca92902ea0ca597b5e62df0b47886b6b7d4d905090565b5f73c4e4dc291a5c4debe9ff5a3372f3fdd2e42bac86905090565b5f81511115610dc45780518082602001fd5b6040517f1425ea4200000000000000000000000000000000000000000000000000000000815260040160405180910390fd5b5f617a69461480610e0957506204991946145b905090565b5f5f5f601e73f4e4fdca9d5d55e64525e314391996a15f7ec600610e329190611c5c565b73ffffffffffffffffffffffffffffffffffffffff16604051610e54906120c5565b5f60405180830381855afa9150503d805f8114610e8c576040519150601f19603f3d011682016040523d82523d5f602084013e610e91565b606091505b5091509150811580610ea357505f8151145b15610eb2575f92505050610ed0565b5f81806020019051810190610ec7919061198e565b90508093505050505b90565b6040518060800160405280610ee6610f26565b81526020015f81526020015f8152602001610eff610f7c565b81525090565b60405180606001604052806060815260200160608152602001606081525090565b60405180606001604052805f7bffffffffffffffffffffffffffffffffffffffffffffffffffffffff19168152602001610f5e610fdb565b81526020015f6001811115610f7657610f756112f9565b5b81525090565b6040518060a001604052805f73ffffffffffffffffffffffffffffffffffffffff1681526020015f7bffffffffffffffffffffffffffffffffffffffffffffffffffffffff191681526020015f81526020015f81526020015f81525090565b604051806101000160405280600890602082028036833780820191505090505090565b5f604051905090565b5f5ffd5b5f5ffd5b5f5ffd5b5f602082840312156110285761102761100f565b5b81905092915050565b5f5ffd5b5f5ffd5b5f601f19601f8301169050919050565b7f4e487b71000000000000000000000000000000000000000000000000000000005f52604160045260245ffd5b61107f82611039565b810181811067ffffffffffffffff8211171561109e5761109d611049565b5b80604052505050565b5f6110b0610ffe565b90506110bc8282611076565b919050565b5f67ffffffffffffffff8211156110db576110da611049565b5b6110e482611039565b9050602081019050919050565b828183375f83830152505050565b5f61111161110c846110c1565b6110a7565b90508281526020810184848401111561112d5761112c611035565b5b6111388482856110f1565b509392505050565b5f82601f83011261115457611153611031565b5b81356111648482602086016110ff565b91505092915050565b5f5f5f6060848603121561118457611183611007565b5b5f84013567ffffffffffffffff8111156111a1576111a061100b565b5b6111ad86828701611013565b935050602084013567ffffffffffffffff8111156111ce576111cd61100b565b5b6111da86828701611140565b925050604084013567ffffffffffffffff8111156111fb576111fa61100b565b5b61120786828701611140565b9150509250925092565b5f7fffffffff0000000000000000000000000000000000000000000000000000000082169050919050565b61124581611211565b82525050565b5f60089050919050565b5f81905092915050565b5f819050919050565b5f819050919050565b61127a81611268565b82525050565b5f61128b8383611271565b60208301905092915050565b5f602082019050919050565b6112ac8161124b565b6112b68184611255565b92506112c18261125f565b805f5b838110156112f15781516112d88782611280565b96506112e383611297565b9250506001810190506112c4565b505050505050565b7f4e487b71000000000000000000000000000000000000000000000000000000005f52602160045260245ffd5b60028110611337576113366112f9565b5b50565b5f81905061134782611326565b919050565b5f6113568261133a565b9050919050565b6113668161134c565b82525050565b61014082015f8201516113815f85018261123c565b50602082015161139460208501826112a3565b5060408201516113a861012085018261135d565b50505050565b5f819050919050565b6113c0816113ae565b82525050565b5f73ffffffffffffffffffffffffffffffffffffffff82169050919050565b5f6113ef826113c6565b9050919050565b6113ff816113e5565b82525050565b60a082015f8201516114195f8501826113f6565b50602082015161142c602085018261123c565b50604082015161143f60408501826113b7565b50606082015161145260608501826113b7565b5060808201516114656080850182611271565b50505050565b61022082015f8201516114805f85018261136c565b506020820151611494610140850182611271565b5060408201516114a86101608501826113b7565b5060608201516114bc610180850182611405565b50505050565b5f819050919050565b6114d4816114c2565b82525050565b5f81519050919050565b5f82825260208201905092915050565b8281835e5f83830152505050565b5f61150c826114da565b61151681856114e4565b93506115268185602086016114f4565b61152f81611039565b840191505092915050565b5f6102808201905061154e5f83018761146b565b61155c6102208301866114cb565b81810361024083015261156f8185611502565b90508181036102608301526115848184611502565b905095945050505050565b5f6020820190508181035f8301526115a78184611502565b905092915050565b6115b8816113e5565b81146115c2575f5ffd5b50565b5f813590506115d3816115af565b92915050565b5f5f604083850312156115ef576115ee611007565b5b5f83013567ffffffffffffffff81111561160c5761160b61100b565b5b61161885828601611013565b9250506020611629858286016115c5565b9150509250929050565b61163c816113e5565b82525050565b5f610260820190506116565f83018661146b565b611664610220830185611633565b6116726102408301846114cb565b949350505050565b611683816113ae565b811461168d575f5ffd5b50565b5f8135905061169e8161167a565b92915050565b5f602082840312156116b9576116b8611007565b5b5f6116c684828501611690565b91505092915050565b5f610220820190506116e35f83018461146b565b92915050565b5f5f604083850312156116ff576116fe611007565b5b5f61170c85828601611690565b925050602061171d85828601611690565b9150509250929050565b5f81905092915050565b5f61173b826114da565b6117458185611727565b93506117558185602086016114f4565b80840191505092915050565b7f2f6973737565732f0000000000000000000000000000000000000000000000005f82015250565b5f611795600883611727565b91506117a082611761565b600882019050919050565b5f6117b68286611731565b91506117c28285611731565b91506117cd82611789565b91506117d98284611731565b9150819050949350505050565b5f5ffd5b5f5ffd5b5f60208284031215611803576118026117e6565b5b61180d60206110a7565b90505f82013567ffffffffffffffff81111561182c5761182b6117ea565b5b61183884828501611140565b5f8301525092915050565b5f61184e36836117ee565b9050919050565b7f636f6d706c6574656400000000000000000000000000000000000000000000005f82015250565b5f611889600983611727565b915061189482611855565b600982019050919050565b5f6118a98261187d565b9150819050919050565b5f6118be8284611731565b915081905092915050565b7f4973737565206973206e6f7420636f6d706c65746564000000000000000000005f82015250565b5f6118fd6016836114e4565b9150611908826118c9565b602082019050919050565b5f6020820190508181035f83015261192a816118f1565b9050919050565b61193a816113ae565b82525050565b5f6020820190506119535f830184611931565b92915050565b5f8115159050919050565b61196d81611959565b8114611977575f5ffd5b50565b5f8151905061198881611964565b92915050565b5f602082840312156119a3576119a2611007565b5b5f6119b08482850161197a565b91505092915050565b7f4661696c6564206368656174636f646520696e766f636174696f6e00000000005f82015250565b5f6119ed601b836114e4565b91506119f8826119b9565b602082019050919050565b5f6020820190508181035f830152611a1a816119e1565b9050919050565b5f604082019050611a345f830185611931565b611a416020830184611931565b9392505050565b7f55524c206d69736d6174636800000000000000000000000000000000000000005f82015250565b5f611a7c600c836114e4565b9150611a8782611a48565b602082019050919050565b5f6020820190508181035f830152611aa981611a70565b9050919050565b7f426f647920697320656d707479000000000000000000000000000000000000005f82015250565b5f611ae4600d836114e4565b9150611aef82611ab0565b602082019050919050565b5f6020820190508181035f830152611b1181611ad8565b9050919050565b5f60029050919050565b5f81905092915050565b5f819050919050565b5f82825260208201905092915050565b5f611b4f826114da565b611b598185611b35565b9350611b698185602086016114f4565b611b7281611039565b840191505092915050565b5f611b888383611b45565b905092915050565b5f602082019050919050565b5f611ba682611b18565b611bb08185611b22565b935083602082028501611bc285611b2c565b805f5b85811015611bfd5784840389528151611bde8582611b7d565b9450611be983611b90565b925060208a01995050600181019050611bc5565b50829750879550505050505092915050565b5f6020820190508181035f830152611c278184611b9c565b905092915050565b7f4e487b71000000000000000000000000000000000000000000000000000000005f52601160045260245ffd5b5f611c66826113c6565b9150611c71836113c6565b9250828201905073ffffffffffffffffffffffffffffffffffffffff811115611c9d57611c9c611c2f565b5b92915050565b5f81519050919050565b5f81905092915050565b5f611cc182611ca3565b611ccb8185611cad565b9350611cdb8185602086016114f4565b80840191505092915050565b5f611cf28284611cb7565b915081905092915050565b611d06816114c2565b8114611d10575f5ffd5b50565b5f81519050611d2181611cfd565b92915050565b5f60208284031215611d3c57611d3b611007565b5b5f611d4984828501611d13565b91505092915050565b5f611d64611d5f846110c1565b6110a7565b905082815260208101848484011115611d8057611d7f611035565b5b611d8b8482856114f4565b509392505050565b5f82601f830112611da757611da6611031565b5b8151611db7848260208601611d52565b91505092915050565b5f60208284031215611dd557611dd4611007565b5b5f82015167ffffffffffffffff811115611df257611df161100b565b5b611dfe84828501611d93565b91505092915050565b5f602083015f8301518482035f860152611e218282611b45565b9150508091505092915050565b60028110611e3f57611e3e6112f9565b5b50565b5f819050611e4f82611e2e565b919050565b5f611e5e82611e42565b9050919050565b611e6e81611e54565b82525050565b60028110611e8557611e846112f9565b5b50565b5f819050611e9582611e74565b919050565b5f611ea482611e88565b9050919050565b611eb481611e9a565b82525050565b5f6060820190508181035f830152611ed28186611e07565b9050611ee16020830185611e65565b611eee6040830184611eab565b949350505050565b5f67ffffffffffffffff821115611f1057611f0f611049565b5b602082029050919050565b5f5ffd5b5f611f31611f2c84611ef6565b6110a7565b90508060208402830185811115611f4b57611f4a611f1b565b5b835b81811015611f9257805167ffffffffffffffff811115611f7057611f6f611031565b5b808601611f7d8982611d93565b85526020850194505050602081019050611f4d565b5050509392505050565b5f82601f830112611fb057611faf611031565b5b6004611fbd848285611f1f565b91505092915050565b5f60208284031215611fdb57611fda611007565b5b5f82015167ffffffffffffffff811115611ff857611ff761100b565b5b61200484828501611f9c565b91505092915050565b7f4e487b71000000000000000000000000000000000000000000000000000000005f52603260045260245ffd5b7f496e76616c6964206e6f74617279207075626c6963206b6579000000000000005f82015250565b5f61206e6019836114e4565b91506120798261203a565b602082019050919050565b5f6020820190508181035f83015261209b81612062565b9050919050565b50565b5f6120b05f83611cad565b91506120bb826120a2565b5f82019050919050565b5f6120cf826120a5565b915081905091905056fe68747470733a2f2f6261636b2e766772616e742e78797a2f6170692f617574682f6d652d2d2d2d2d424547494e205055424c4943204b45592d2d2d2d2d0a4d465977454159484b6f5a497a6a3043415159464b34454541416f445167414565306a786e424f6261496a37586a673654584c434d3147472f566859353635300a4f72532f6a6763624275666f2f51446646764c2f69727a4976314a536d684769566373434843776f6c684458576367653776324973513d3d0a2d2d2d2d2d454e44205055424c4943204b45592d2d2d2d2d0aa26469706673582212207e2a48b97149012652e4651b2b75030adb7dd49533838239e30d98f9db78542a64736f6c634300081d0033","linkReferences":{}},"methodIdentifiers":{"DATA_URL()":"9bb2bd7f","DATA_URL_VGRANT()":"643204ce","proof()":"faf924cf","setBlock(uint256)":"87cea3ae","setChain(uint256,uint256)":"ffbc5638","verifyGithub((string),address)":"84eec816","verifyIssue((string),string,string)":"5af76f23"},"id":45}