{"abi":[{"type":"constructor","inputs":[{"name":"_prover","type":"address","internalType":"address"},{"name":"_bountyToken","type":"address","internalType":"address"}],"stateMutability":"nonpayable"},{"type":"function","name":"_setTestVerifier","inputs":[{"name":"newVerifier","type":"address","internalType":"contract IProofVerifier"}],"outputs":[],"stateMutability":"nonpayable"},{"type":"function","name":"accounts","inputs":[{"name":"id","type":"int256","internalType":"int256"}],"outputs":[{"name":"","type":"address","internalType":"address"}],"stateMutability":"view"},{"type":"function","name":"addBounty","inputs":[{"name":"_url","type":"string","internalType":"string"},{"name":"_issueId","type":"uint256","internalType":"uint256"},{"name":"_bounty","type":"uint256","internalType":"uint256"},{"name":"_deadline","type":"uint256","internalType":"uint256"}],"outputs":[],"stateMutability":"nonpayable"},{"type":"function","name":"approveBounty","inputs":[{"name":"_issue","type":"string","internalType":"string"}],"outputs":[],"stateMutability":"nonpayable"},{"type":"function","name":"bounties","inputs":[{"name":"repo","type":"string","internalType":"string"}],"outputs":[{"name":"author","type":"address","internalType":"address"},{"name":"repo","type":"string","internalType":"string"},{"name":"issueId","type":"uint256","internalType":"uint256"},{"name":"bounty","type":"uint256","internalType":"uint256"},{"name":"deadline","type":"uint256","internalType":"uint256"},{"name":"approved","type":"bool","internalType":"bool"},{"name":"claimed","type":"bool","internalType":"bool"}],"stateMutability":"view"},{"type":"function","name":"bountyExists","inputs":[{"name":"issue","type":"string","internalType":"string"}],"outputs":[{"name":"","type":"bool","internalType":"bool"}],"stateMutability":"view"},{"type":"function","name":"bountyToken","inputs":[],"outputs":[{"name":"","type":"address","internalType":"contract IERC20"}],"stateMutability":"view"},{"type":"function","name":"closeBounty","inputs":[{"name":"_issue","type":"string","internalType":"string"}],"outputs":[],"stateMutability":"nonpayable"},{"type":"function","name":"getBounty","inputs":[{"name":"_issue","type":"string","internalType":"string"}],"outputs":[{"name":"","type":"tuple","internalType":"struct Vgrant.Bounty","components":[{"name":"author","type":"address","internalType":"address"},{"name":"repo","type":"string","internalType":"string"},{"name":"issueId","type":"uint256","internalType":"uint256"},{"name":"bounty","type":"uint256","internalType":"uint256"},{"name":"deadline","type":"uint256","internalType":"uint256"},{"name":"approved","type":"bool","internalType":"bool"},{"name":"claimed","type":"bool","internalType":"bool"}]}],"stateMutability":"view"},{"type":"function","name":"increasebountyDeadline","inputs":[{"name":"_issue","type":"string","internalType":"string"},{"name":"_newDeadline","type":"uint256","internalType":"uint256"}],"outputs":[],"stateMutability":"nonpayable"},{"type":"function","name":"isVerified","inputs":[{"name":"_userId","type":"int256","internalType":"int256"}],"outputs":[{"name":"","type":"bool","internalType":"bool"}],"stateMutability":"view"},{"type":"function","name":"prover","inputs":[],"outputs":[{"name":"","type":"address","internalType":"address"}],"stateMutability":"view"},{"type":"function","name":"verifier","inputs":[],"outputs":[{"name":"","type":"address","internalType":"contract IProofVerifier"}],"stateMutability":"view"},{"type":"function","name":"verify","inputs":[{"name":"","type":"tuple","internalType":"struct Proof","components":[{"name":"seal","type":"tuple","internalType":"struct Seal","components":[{"name":"verifierSelector","type":"bytes4","internalType":"bytes4"},{"name":"seal","type":"bytes32[8]","internalType":"bytes32[8]"},{"name":"mode","type":"uint8","internalType":"enum ProofMode"}]},{"name":"callGuestId","type":"bytes32","internalType":"bytes32"},{"name":"length","type":"uint256","internalType":"uint256"},{"name":"callAssumptions","type":"tuple","internalType":"struct CallAssumptions","components":[{"name":"proverContractAddress","type":"address","internalType":"address"},{"name":"functionSelector","type":"bytes4","internalType":"bytes4"},{"name":"settleChainId","type":"uint256","internalType":"uint256"},{"name":"settleBlockNumber","type":"uint256","internalType":"uint256"},{"name":"settleBlockHash","type":"bytes32","internalType":"bytes32"}]}]},{"name":"userId","type":"int256","internalType":"int256"},{"name":"status","type":"string","internalType":"string"},{"name":"url","type":"string","internalType":"string"}],"outputs":[],"stateMutability":"nonpayable"},{"type":"function","name":"verifyAccount","inputs":[{"name":"","type":"tuple","internalType":"struct Proof","components":[{"name":"seal","type":"tuple","internalType":"struct Seal","components":[{"name":"verifierSelector","type":"bytes4","internalType":"bytes4"},{"name":"seal","type":"bytes32[8]","internalType":"bytes32[8]"},{"name":"mode","type":"uint8","internalType":"enum ProofMode"}]},{"name":"callGuestId","type":"bytes32","internalType":"bytes32"},{"name":"length","type":"uint256","internalType":"uint256"},{"name":"callAssumptions","type":"tuple","internalType":"struct CallAssumptions","components":[{"name":"proverContractAddress","type":"address","internalType":"address"},{"name":"functionSelector","type":"bytes4","internalType":"bytes4"},{"name":"settleChainId","type":"uint256","internalType":"uint256"},{"name":"settleBlockNumber","type":"uint256","internalType":"uint256"},{"name":"settleBlockHash","type":"bytes32","internalType":"bytes32"}]}]},{"name":"_account","type":"address","internalType":"address"},{"name":"_userId","type":"int256","internalType":"int256"}],"outputs":[],"stateMutability":"nonpayable"},{"type":"event","name":"AccountVerified","inputs":[{"name":"account","type":"address","indexed":false,"internalType":"address"},{"name":"id","type":"int256","indexed":false,"internalType":"int256"}],"anonymous":false},{"type":"event","name":"BountyAdded","inputs":[{"name":"repo","type":"string","indexed":false,"internalType":"string"},{"name":"issueId","type":"uint256","indexed":false,"internalType":"uint256"},{"name":"bounty","type":"uint256","indexed":false,"internalType":"uint256"},{"name":"deadline","type":"uint256","indexed":false,"internalType":"uint256"}],"anonymous":false},{"type":"event","name":"BountyApproved","inputs":[{"name":"issue","type":"string","indexed":false,"internalType":"string"},{"name":"bounty","type":"uint256","indexed":false,"internalType":"uint256"},{"name":"deadline","type":"uint256","indexed":false,"internalType":"uint256"},{"name":"author","type":"address","indexed":false,"internalType":"address"}],"anonymous":false},{"type":"event","name":"BountyClaimed","inputs":[{"name":"issue","type":"string","indexed":false,"internalType":"string"},{"name":"bounty","type":"uint256","indexed":false,"internalType":"uint256"},{"name":"dev","type":"address","indexed":false,"internalType":"address"},{"name":"githubId","type":"int256","indexed":false,"internalType":"int256"}],"anonymous":false},{"type":"event","name":"BountyClosed","inputs":[{"name":"issue","type":"string","indexed":false,"internalType":"string"}],"anonymous":false},{"type":"event","name":"BountyIncreasedDeadline","inputs":[{"name":"issue","type":"string","indexed":false,"internalType":"string"},{"name":"newDeadline","type":"uint256","indexed":false,"internalType":"uint256"},{"name":"oldDeadline","type":"uint256","indexed":false,"internalType":"uint256"}],"anonymous":false},{"type":"error","name":"InvalidChainId","inputs":[]}],"bytecode":{"object":"0x60c060405234801561000f575f5ffd5b5060405161960d38038061960d83398181016040528101906100319190610718565b61003f6102b660201b60201c565b5f5f6101000a81548173ffffffffffffffffffffffffffffffffffffffff021916908373ffffffffffffffffffffffffffffffffffffffff1602179055503373ffffffffffffffffffffffffffffffffffffffff1660808173ffffffffffffffffffffffffffffffffffffffff16815250505f73ffffffffffffffffffffffffffffffffffffffff168173ffffffffffffffffffffffffffffffffffffffff160361011f576040517f08c379a0000000000000000000000000000000000000000000000000000000008152600401610116906107d6565b60405180910390fd5b5f73ffffffffffffffffffffffffffffffffffffffff168273ffffffffffffffffffffffffffffffffffffffff160361018d576040517f08c379a00000000000000000000000000000000000000000000000000000000081526004016101849061083e565b60405180910390fd5b3373ffffffffffffffffffffffffffffffffffffffff168273ffffffffffffffffffffffffffffffffffffffff16036101fb576040517f08c379a00000000000000000000000000000000000000000000000000000000081526004016101f2906108cc565b60405180910390fd5b8060035f6101000a81548173ffffffffffffffffffffffffffffffffffffffff021916908373ffffffffffffffffffffffffffffffffffffffff1602179055503373ffffffffffffffffffffffffffffffffffffffff1660a08173ffffffffffffffffffffffffffffffffffffffff16815250508160015f6101000a81548173ffffffffffffffffffffffffffffffffffffffff021916908373ffffffffffffffffffffffffffffffffffffffff1602179055505050610ada565b5f6102c561045260201b60201c565b156103c1575f30306040516102d9906106a0565b6102e49291906108f9565b604051809103905ff0801580156102fd573d5f5f3e3d5ffd5b5090508073ffffffffffffffffffffffffffffffffffffffff166384cf84e17fdcb00648ecc90d8bfe92aa8d51061beb0bcb110d274fc4a517e526574233d36b5f1b6040518263ffffffff1660e01b815260040161035b9190610938565b5f604051808303815f87803b158015610372575f5ffd5b505af1158015610384573d5f5f3e3d5ffd5b5050505080604051610395906106ad565b61039f91906109ac565b604051809103905ff0801580156103b8573d5f5f3e3d5ffd5b5091505061044f565b6103cf61047b60201b60201c565b156103ee575f6103e36104e360201b60201c565b90508091505061044f565b6103fc61050360201b60201c565b1561041d575f61041061056760201b60201c565b925050508091505061044f565b6040517f7a47c9a200000000000000000000000000000000000000000000000000000000815260040160405180910390fd5b90565b5f6104616105c360201b60201c565b8061047657506104756105db60201b60201c565b5b905090565b5f600146148061048b5750600a46145b806104965750608946145b806104a2575061014446145b806104ae57506101e046145b806104ba575061210546145b806104c6575061a4b146145b806104d2575061a4ba46145b806104de575061e70846145b905090565b5f5f735553cf6ce25e3f80fad2866f6230346159ecd89c90508091505090565b5f62aa36a7461480610516575061012c46145b8061052257506112c146145b8061052e575061e70546145b8061053b57506201388246145b80610548575062014a3446145b80610555575062066eee46145b80610562575062aa37dc46145b905090565b5f5f5f5f739e30dc3e49c4d47f982902710616dcc4b6ff7bf590505f737e231cfc3e3b549633d5ad61c30f07dd4d408ad390505f738972b6ff413ac04e61e19f07d7f3bd980d0cc3219050828282955095509550505050909192565b5f617a694614806105d657506204991946145b905090565b5f5f5f601e73f4e4fdca9d5d55e64525e314391996a15f7ec6006105ff91906109f2565b73ffffffffffffffffffffffffffffffffffffffff1660405161062190610a66565b5f60405180830381855afa9150503d805f8114610659576040519150601f19603f3d011682016040523d82523d5f602084013e61065e565b606091505b509150915081158061067057505f8151145b1561067f575f9250505061069d565b5f818060200190518101906106949190610aaf565b90508093505050505b90565b611fd080614f9183390190565b6126ac80616f6183390190565b5f5ffd5b5f73ffffffffffffffffffffffffffffffffffffffff82169050919050565b5f6106e7826106be565b9050919050565b6106f7816106dd565b8114610701575f5ffd5b50565b5f81519050610712816106ee565b92915050565b5f5f6040838503121561072e5761072d6106ba565b5b5f61073b85828601610704565b925050602061074c85828601610704565b9150509250929050565b5f82825260208201905092915050565b7f426f756e747920746f6b656e20616464726573732063616e6e6f74206265207a5f8201527f65726f0000000000000000000000000000000000000000000000000000000000602082015250565b5f6107c0602383610756565b91506107cb82610766565b604082019050919050565b5f6020820190508181035f8301526107ed816107b4565b9050919050565b7f50726f76657220616464726573732063616e6e6f74206265207a65726f0000005f82015250565b5f610828601d83610756565b9150610833826107f4565b602082019050919050565b5f6020820190508181035f8301526108558161081c565b9050919050565b7f50726f7665722063616e6e6f74206265207468652073616d65206173207665725f8201527f6966696572000000000000000000000000000000000000000000000000000000602082015250565b5f6108b6602583610756565b91506108c18261085c565b604082019050919050565b5f6020820190508181035f8301526108e3816108aa565b9050919050565b6108f3816106dd565b82525050565b5f60408201905061090c5f8301856108ea565b61091960208301846108ea565b9392505050565b5f819050919050565b61093281610920565b82525050565b5f60208201905061094b5f830184610929565b92915050565b5f819050919050565b5f61097461096f61096a846106be565b610951565b6106be565b9050919050565b5f6109858261095a565b9050919050565b5f6109968261097b565b9050919050565b6109a68161098c565b82525050565b5f6020820190506109bf5f83018461099d565b92915050565b7f4e487b71000000000000000000000000000000000000000000000000000000005f52601160045260245ffd5b5f6109fc826106be565b9150610a07836106be565b9250828201905073ffffffffffffffffffffffffffffffffffffffff811115610a3357610a326109c5565b5b92915050565b5f81905092915050565b50565b5f610a515f83610a39565b9150610a5c82610a43565b5f82019050919050565b5f610a7082610a46565b9150819050919050565b5f8115159050919050565b610a8e81610a7a565b8114610a98575f5ffd5b50565b5f81519050610aa981610a85565b92915050565b5f60208284031215610ac457610ac36106ba565b5b5f610ad184828501610a9b565b91505092915050565b60805160a051614499610af85f395f50505f610ec301526144995ff3fe608060405234801561000f575f5ffd5b50600436106100f3575f3560e01c80636cef4e7f11610095578063df6bc52311610064578063df6bc52314610273578063e62e8e8b1461028f578063f5f08ef7146102bf578063fd2d2884146102db576100f3565b80636cef4e7f146101ef578063961bee5a1461021f5780639b8b30c81461023b578063ceef491a14610257576100f3565b80632d4147e3116100d15780632d4147e31461014d57806332a8f30f1461016b5780633cbef3731461018957806357f56061146101bf576100f3565b80630e0965f6146100f75780631c27b9e4146101135780632b7ac3f31461012f575b5f5ffd5b610111600480360381019061010c91906123c1565b61030b565b005b61012d6004803603810190610128919061243b565b610443565b005b61013761062f565b604051610144919061250f565b60405180910390f35b610155610653565b6040516101629190612548565b60405180910390f35b610173610678565b6040516101809190612581565b60405180910390f35b6101a3600480360381019061019e91906123c1565b61069d565b6040516101b69796959493929190612623565b60405180910390f35b6101d960048036038101906101d491906123c1565b6107b1565b6040516101e691906127a5565b60405180910390f35b610209600480360381019061020491906127f8565b61098f565b6040516102169190612581565b60405180910390f35b61023960048036038101906102349190612823565b6109bf565b005b610255600480360381019061025091906128de565b610ec1565b005b610271600480360381019061026c91906123c1565b6110c1565b005b61028d60048036038101906102889190612956565b6113e6565b005b6102a960048036038101906102a491906123c1565b6115f7565b6040516102b691906129a9565b60405180910390f35b6102d960048036038101906102d491906129c2565b61162c565b005b6102f560048036038101906102f091906127f8565b611ac5565b60405161030291906129a9565b60405180910390f35b5f60048260405161031c9190612a9c565b908152602001604051809103902090503373ffffffffffffffffffffffffffffffffffffffff16815f015f9054906101000a900473ffffffffffffffffffffffffffffffffffffffff1673ffffffffffffffffffffffffffffffffffffffff16146103bc576040517f08c379a00000000000000000000000000000000000000000000000000000000081526004016103b390612b22565b60405180910390fd5b6001816005015f6101000a81548160ff0219169083151502179055507f58d377b4a52f2e8df5fb47cfb83b6899302a827d0c22db334d843922b82236068282600301548360040154845f015f9054906101000a900473ffffffffffffffffffffffffffffffffffffffff166040516104379493929190612b40565b60405180910390a15050565b5f6004836040516104549190612a9c565b908152602001604051809103902090503373ffffffffffffffffffffffffffffffffffffffff16815f015f9054906101000a900473ffffffffffffffffffffffffffffffffffffffff1673ffffffffffffffffffffffffffffffffffffffff16146104f4576040517f08c379a00000000000000000000000000000000000000000000000000000000081526004016104eb90612bfa565b60405180910390fd5b806005015f9054906101000a900460ff1615610545576040517f08c379a000000000000000000000000000000000000000000000000000000000815260040161053c90612c62565b60405180910390fd5b8060050160019054906101000a900460ff1615610597576040517f08c379a000000000000000000000000000000000000000000000000000000000815260040161058e90612cca565b60405180910390fd5b806004015482116105dd576040517f08c379a00000000000000000000000000000000000000000000000000000000081526004016105d490612d58565b60405180910390fd5b5f816004015490508282600401819055507fd9ed601ea0df9e4ff22ab456cba545ecb30fc3d7edcddfa29844fa37bfe3290584848360405161062193929190612d76565b60405180910390a150505050565b5f5f9054906101000a900473ffffffffffffffffffffffffffffffffffffffff1681565b60035f9054906101000a900473ffffffffffffffffffffffffffffffffffffffff1681565b60015f9054906101000a900473ffffffffffffffffffffffffffffffffffffffff1681565b6004818051602081018201805184825260208301602085012081835280955050505050505f91509050805f015f9054906101000a900473ffffffffffffffffffffffffffffffffffffffff16908060010180546106f990612ddf565b80601f016020809104026020016040519081016040528092919081815260200182805461072590612ddf565b80156107705780601f1061074757610100808354040283529160200191610770565b820191905f5260205f20905b81548152906001019060200180831161075357829003601f168201915b505050505090806002015490806003015490806004015490806005015f9054906101000a900460ff16908060050160019054906101000a900460ff16905087565b6107b96120c1565b6005826040516107c99190612a9c565b90815260200160405180910390205f9054906101000a900460ff16610823576040517f08c379a000000000000000000000000000000000000000000000000000000000815260040161081a90612e59565b60405180910390fd5b5f6004836040516108349190612a9c565b90815260200160405180910390209050806040518060e00160405290815f82015f9054906101000a900473ffffffffffffffffffffffffffffffffffffffff1673ffffffffffffffffffffffffffffffffffffffff1673ffffffffffffffffffffffffffffffffffffffff1681526020016001820180546108b490612ddf565b80601f01602080910402602001604051908101604052809291908181526020018280546108e090612ddf565b801561092b5780601f106109025761010080835404028352916020019161092b565b820191905f5260205f20905b81548152906001019060200180831161090e57829003601f168201915b50505050508152602001600282015481526020016003820154815260200160048201548152602001600582015f9054906101000a900460ff161515151581526020016005820160019054906101000a900460ff161515151581525050915050919050565b6002602052805f5260405f205f915054906101000a900473ffffffffffffffffffffffffffffffffffffffff1681565b5f15156005856040516109d29190612a9c565b90815260200160405180910390205f9054906101000a900460ff16151514610a2f576040517f08c379a0000000000000000000000000000000000000000000000000000000008152600401610a2690612ee7565b60405180910390fd5b5f8211610a71576040517f08c379a0000000000000000000000000000000000000000000000000000000008152600401610a6890612f4f565b60405180910390fd5b8160035f9054906101000a900473ffffffffffffffffffffffffffffffffffffffff1673ffffffffffffffffffffffffffffffffffffffff1663dd62ed3e33306040518363ffffffff1660e01b8152600401610ace929190612f6d565b602060405180830381865afa158015610ae9573d5f5f3e3d5ffd5b505050506040513d601f19601f82011682018060405250810190610b0d9190612fa8565b1015610b4e576040517f08c379a0000000000000000000000000000000000000000000000000000000008152600401610b4590613043565b60405180910390fd5b8160035f9054906101000a900473ffffffffffffffffffffffffffffffffffffffff1673ffffffffffffffffffffffffffffffffffffffff166370a08231336040518263ffffffff1660e01b8152600401610ba99190612581565b602060405180830381865afa158015610bc4573d5f5f3e3d5ffd5b505050506040513d601f19601f82011682018060405250810190610be89190612fa8565b1015610c29576040517f08c379a0000000000000000000000000000000000000000000000000000000008152600401610c20906130ab565b60405180910390fd5b4281118015610c4557506202a30042610c4291906130f6565b81115b610c84576040517f08c379a0000000000000000000000000000000000000000000000000000000008152600401610c7b90613199565b60405180910390fd5b60035f9054906101000a900473ffffffffffffffffffffffffffffffffffffffff1673ffffffffffffffffffffffffffffffffffffffff166323b872dd3330856040518463ffffffff1660e01b8152600401610ce2939291906131b7565b6020604051808303815f875af1158015610cfe573d5f5f3e3d5ffd5b505050506040513d601f19601f82011682018060405250810190610d229190613216565b506040518060e001604052803373ffffffffffffffffffffffffffffffffffffffff1681526020018581526020018481526020018381526020018281526020015f151581526020015f1515815250600485604051610d809190612a9c565b90815260200160405180910390205f820151815f015f6101000a81548173ffffffffffffffffffffffffffffffffffffffff021916908373ffffffffffffffffffffffffffffffffffffffff1602179055506020820151816001019081610de791906133d8565b5060408201518160020155606082015181600301556080820151816004015560a0820151816005015f6101000a81548160ff02191690831515021790555060c08201518160050160016101000a81548160ff0219169083151502179055509050506001600585604051610e5a9190612a9c565b90815260200160405180910390205f6101000a81548160ff0219169083151502179055507f7ce4cd2cc42b4c9048d82c1c66f91be92f950fe469d6d1f3eae0e048eb1a97c384848484604051610eb394939291906134a7565b60405180910390a150505050565b7f000000000000000000000000000000000000000000000000000000000000000073ffffffffffffffffffffffffffffffffffffffff163373ffffffffffffffffffffffffffffffffffffffff1614610f4f576040517f08c379a0000000000000000000000000000000000000000000000000000000008152600401610f4690613561565b60405180910390fd5b610f57611b2d565b80610f665750610f65611b4a565b5b610fa5576040517f08c379a0000000000000000000000000000000000000000000000000000000008152600401610f9c906135ef565b60405180910390fd5b5f73ffffffffffffffffffffffffffffffffffffffff168173ffffffffffffffffffffffffffffffffffffffff16633fd66f226040518163ffffffff1660e01b8152600401602060405180830381865afa158015611005573d5f5f3e3d5ffd5b505050506040513d601f19601f820116820180604052508101906110299190613648565b73ffffffffffffffffffffffffffffffffffffffff160361107f576040517f08c379a0000000000000000000000000000000000000000000000000000000008152600401611076906136e3565b60405180910390fd5b805f5f6101000a81548173ffffffffffffffffffffffffffffffffffffffff021916908373ffffffffffffffffffffffffffffffffffffffff16021790555050565b5f6004826040516110d29190612a9c565b908152602001604051809103902090503373ffffffffffffffffffffffffffffffffffffffff16815f015f9054906101000a900473ffffffffffffffffffffffffffffffffffffffff1673ffffffffffffffffffffffffffffffffffffffff1614611172576040517f08c379a00000000000000000000000000000000000000000000000000000000081526004016111699061374b565b60405180910390fd5b806005015f9054906101000a900460ff16156112225780600401544210156111cf576040517f08c379a00000000000000000000000000000000000000000000000000000000081526004016111c6906137b3565b60405180910390fd5b8060050160019054906101000a900460ff1615611221576040517f08c379a000000000000000000000000000000000000000000000000000000000815260040161121890612cca565b60405180910390fd5b5b6004826040516112329190612a9c565b90815260200160405180910390205f5f82015f6101000a81549073ffffffffffffffffffffffffffffffffffffffff0219169055600182015f6112759190612112565b600282015f9055600382015f9055600482015f9055600582015f6101000a81549060ff02191690556005820160016101000a81549060ff021916905550505f6005836040516112c49190612a9c565b90815260200160405180910390205f6101000a81548160ff0219169083151502179055507ff93148ab86fbd4f4117c36d094fda4dd1a646ef05365b7cd777243a004dd926d8260405161131791906137d1565b60405180910390a160035f9054906101000a900473ffffffffffffffffffffffffffffffffffffffff1673ffffffffffffffffffffffffffffffffffffffff1663a9059cbb825f015f9054906101000a900473ffffffffffffffffffffffffffffffffffffffff1683600301546040518363ffffffff1660e01b81526004016113a19291906137f1565b6020604051808303815f875af11580156113bd573d5f5f3e3d5ffd5b505050506040513d601f19601f820116820180604052508101906113e19190613216565b505050565b60015f9054906101000a900473ffffffffffffffffffffffffffffffffffffffff166384eec81660e01b61141a8282611bae565b5f73ffffffffffffffffffffffffffffffffffffffff1660025f8581526020019081526020015f205f9054906101000a900473ffffffffffffffffffffffffffffffffffffffff1673ffffffffffffffffffffffffffffffffffffffff16146114b8576040517f08c379a00000000000000000000000000000000000000000000000000000000081526004016114af90613862565b60405180910390fd5b5f83136114fa576040517f08c379a00000000000000000000000000000000000000000000000000000000081526004016114f1906138f0565b60405180910390fd5b5f73ffffffffffffffffffffffffffffffffffffffff168473ffffffffffffffffffffffffffffffffffffffff1603611568576040517f08c379a000000000000000000000000000000000000000000000000000000000815260040161155f90613958565b60405180910390fd5b8360025f8581526020019081526020015f205f6101000a81548173ffffffffffffffffffffffffffffffffffffffff021916908373ffffffffffffffffffffffffffffffffffffffff1602179055507f22ac37ffa6fc8dd21d2c6e84bfc7a888d71cda4de0774569ff9a4787e654597584846040516115e8929190613985565b60405180910390a15050505050565b6005818051602081018201805184825260208301602085012081835280955050505050505f915054906101000a900460ff1681565b60015f9054906101000a900473ffffffffffffffffffffffffffffffffffffffff16635af76f2360e01b6116608282611bae565b60405160200161166f906139f6565b60405160208183030381529060405280519060200120846040516020016116969190612a9c565b60405160208183030381529060405280519060200120146116ec576040517f08c379a00000000000000000000000000000000000000000000000000000000081526004016116e390613a54565b60405180910390fd5b5f73ffffffffffffffffffffffffffffffffffffffff1660025f8781526020019081526020015f205f9054906101000a900473ffffffffffffffffffffffffffffffffffffffff1673ffffffffffffffffffffffffffffffffffffffff160361178a576040517f08c379a000000000000000000000000000000000000000000000000000000000815260040161178190613abc565b60405180910390fd5b60058360405161179a9190612a9c565b90815260200160405180910390205f9054906101000a900460ff166117f4576040517f08c379a00000000000000000000000000000000000000000000000000000000081526004016117eb90613b4a565b60405180910390fd5b5f6004846040516118059190612a9c565b90815260200160405180910390209050806005015f9054906101000a900460ff16611865576040517f08c379a000000000000000000000000000000000000000000000000000000000815260040161185c90613bb2565b60405180910390fd5b8060050160019054906101000a900460ff16156118b7576040517f08c379a00000000000000000000000000000000000000000000000000000000081526004016118ae90612cca565b60405180910390fd5b806004015442106118fd576040517f08c379a00000000000000000000000000000000000000000000000000000000081526004016118f490613c1a565b60405180910390fd5b3373ffffffffffffffffffffffffffffffffffffffff16815f015f9054906101000a900473ffffffffffffffffffffffffffffffffffffffff1673ffffffffffffffffffffffffffffffffffffffff160361198d576040517f08c379a000000000000000000000000000000000000000000000000000000000815260040161198490613ca8565b60405180910390fd5b60018160050160016101000a81548160ff0219169083151502179055507f27777d1942e86c5cd0b77cc4cd927703415d08cb725f8bdc1492eadc4086b15a84826003015460025f8a81526020019081526020015f205f9054906101000a900473ffffffffffffffffffffffffffffffffffffffff1689604051611a139493929190613cc6565b60405180910390a160035f9054906101000a900473ffffffffffffffffffffffffffffffffffffffff1673ffffffffffffffffffffffffffffffffffffffff1663a9059cbb3383600301546040518363ffffffff1660e01b8152600401611a7b9291906137f1565b6020604051808303815f875af1158015611a97573d5f5f3e3d5ffd5b505050506040513d601f19601f82011682018060405250810190611abb9190613216565b5050505050505050565b5f5f73ffffffffffffffffffffffffffffffffffffffff1660025f8481526020019081526020015f205f9054906101000a900473ffffffffffffffffffffffffffffffffffffffff1673ffffffffffffffffffffffffffffffffffffffff1614159050919050565b5f611b36611c4d565b80611b455750611b44611c65565b5b905090565b5f62aa36a7461480611b5d575061012c46145b80611b6957506112c146145b80611b75575061e70546145b80611b8257506201388246145b80611b8f575062014a3446145b80611b9c575062066eee46145b80611ba9575062aa37dc46145b905090565b5f5f611bb8611d2a565b915091505f5f9054906101000a900473ffffffffffffffffffffffffffffffffffffffff1673ffffffffffffffffffffffffffffffffffffffff1663c4fa74e5838387876040518563ffffffff1660e01b8152600401611c1b9493929190613f88565b5f6040518083038186803b158015611c31575f5ffd5b505afa158015611c43573d5f5f3e3d5ffd5b5050505050505050565b5f617a69461480611c6057506204991946145b905090565b5f5f5f601e73f4e4fdca9d5d55e64525e314391996a15f7ec600611c899190613fcf565b73ffffffffffffffffffffffffffffffffffffffff16604051611cab90614043565b5f60405180830381855afa9150503d805f8114611ce3576040519150601f19603f3d011682016040523d82523d5f602084013e611ce8565b606091505b5091509150811580611cfa57505f8151145b15611d09575f92505050611d27565b5f81806020019051810190611d1e9190613216565b90508093505050505b90565b611d3261214f565b5f5f5f366004908092611d479392919061405f565b810190611d54919061432b565b90505f6020806020806020611d6991906130f6565b611d7391906130f6565b611d7d91906130f6565b611d8791906130f6565b60208060206101006020611d9b91906130f6565b611da591906130f6565b611daf91906130f6565b611db991906130f6565b6004611dc591906130f6565b611dcf91906130f6565b90505f6020806020806020611de491906130f6565b611dee91906130f6565b611df891906130f6565b611e0291906130f6565b6020806020806020611e1491906130f6565b611e1e91906130f6565b611e2891906130f6565b611e3291906130f6565b60208060206101006020611e4691906130f6565b611e5091906130f6565b611e5a91906130f6565b611e6491906130f6565b611e6e91906130f6565b8460400151611e7d9190614357565b611e879190614357565b90505f8183611e9691906130f6565b90505f5f3660208060206101006020611eaf91906130f6565b611eb991906130f6565b611ec391906130f6565b611ecd91906130f6565b6004611ed991906130f6565b906020806020806020611eec91906130f6565b611ef691906130f6565b611f0091906130f6565b611f0a91906130f6565b60208060206101006020611f1e91906130f6565b611f2891906130f6565b611f3291906130f6565b611f3c91906130f6565b6004611f4891906130f6565b611f5291906130f6565b92611f5f9392919061405f565b8080601f0160208091040260200160405190810160405280939291908181526020018383808284375f81840152601f19601f8201169050808301925050505050505090505f5f3686908592611fb69392919061405f565b8080601f0160208091040260200160405190810160405280939291908181526020018383808284375f81840152601f19601f8201169050808301925050505050505090505f826120046120aa565b604051602001612014919061438a565b60405160208183030381529060405283604051602001612036939291906143de565b60405160208183030381529060405290505f600282604051612058919061440e565b602060405180830381855afa158015612073573d5f5f3e3d5ffd5b5050506040513d601f19601f820116820180604052508101906120969190614438565b905087819950995050505050505050509091565b6120b261214f565b6120ba61214f565b8091505090565b6040518060e001604052805f73ffffffffffffffffffffffffffffffffffffffff168152602001606081526020015f81526020015f81526020015f81526020015f151581526020015f151581525090565b50805461211e90612ddf565b5f825580601f1061212f575061214c565b601f0160209004905f5260205f209081019061214b9190612181565b5b50565b604051806080016040528061216261219c565b81526020015f81526020015f815260200161217b6121f2565b81525090565b5b80821115612198575f815f905550600101612182565b5090565b60405180606001604052805f7bffffffffffffffffffffffffffffffffffffffffffffffffffffffff191681526020016121d4612251565b81526020015f60018111156121ec576121eb613df8565b5b81525090565b6040518060a001604052805f73ffffffffffffffffffffffffffffffffffffffff1681526020015f7bffffffffffffffffffffffffffffffffffffffffffffffffffffffff191681526020015f81526020015f81526020015f81525090565b604051806101000160405280600890602082028036833780820191505090505090565b5f604051905090565b5f5ffd5b5f5ffd5b5f5ffd5b5f5ffd5b5f601f19601f8301169050919050565b7f4e487b71000000000000000000000000000000000000000000000000000000005f52604160045260245ffd5b6122d38261228d565b810181811067ffffffffffffffff821117156122f2576122f161229d565b5b80604052505050565b5f612304612274565b905061231082826122ca565b919050565b5f67ffffffffffffffff82111561232f5761232e61229d565b5b6123388261228d565b9050602081019050919050565b828183375f83830152505050565b5f61236561236084612315565b6122fb565b90508281526020810184848401111561238157612380612289565b5b61238c848285612345565b509392505050565b5f82601f8301126123a8576123a7612285565b5b81356123b8848260208601612353565b91505092915050565b5f602082840312156123d6576123d561227d565b5b5f82013567ffffffffffffffff8111156123f3576123f2612281565b5b6123ff84828501612394565b91505092915050565b5f819050919050565b61241a81612408565b8114612424575f5ffd5b50565b5f8135905061243581612411565b92915050565b5f5f604083850312156124515761245061227d565b5b5f83013567ffffffffffffffff81111561246e5761246d612281565b5b61247a85828601612394565b925050602061248b85828601612427565b9150509250929050565b5f73ffffffffffffffffffffffffffffffffffffffff82169050919050565b5f819050919050565b5f6124d76124d26124cd84612495565b6124b4565b612495565b9050919050565b5f6124e8826124bd565b9050919050565b5f6124f9826124de565b9050919050565b612509816124ef565b82525050565b5f6020820190506125225f830184612500565b92915050565b5f612532826124de565b9050919050565b61254281612528565b82525050565b5f60208201905061255b5f830184612539565b92915050565b5f61256b82612495565b9050919050565b61257b81612561565b82525050565b5f6020820190506125945f830184612572565b92915050565b5f81519050919050565b5f82825260208201905092915050565b8281835e5f83830152505050565b5f6125cc8261259a565b6125d681856125a4565b93506125e68185602086016125b4565b6125ef8161228d565b840191505092915050565b61260381612408565b82525050565b5f8115159050919050565b61261d81612609565b82525050565b5f60e0820190506126365f83018a612572565b818103602083015261264881896125c2565b905061265760408301886125fa565b61266460608301876125fa565b61267160808301866125fa565b61267e60a0830185612614565b61268b60c0830184612614565b98975050505050505050565b6126a081612561565b82525050565b5f82825260208201905092915050565b5f6126c08261259a565b6126ca81856126a6565b93506126da8185602086016125b4565b6126e38161228d565b840191505092915050565b6126f781612408565b82525050565b61270681612609565b82525050565b5f60e083015f8301516127215f860182612697565b506020830151848203602086015261273982826126b6565b915050604083015161274e60408601826126ee565b50606083015161276160608601826126ee565b50608083015161277460808601826126ee565b5060a083015161278760a08601826126fd565b5060c083015161279a60c08601826126fd565b508091505092915050565b5f6020820190508181035f8301526127bd818461270c565b905092915050565b5f819050919050565b6127d7816127c5565b81146127e1575f5ffd5b50565b5f813590506127f2816127ce565b92915050565b5f6020828403121561280d5761280c61227d565b5b5f61281a848285016127e4565b91505092915050565b5f5f5f5f6080858703121561283b5761283a61227d565b5b5f85013567ffffffffffffffff81111561285857612857612281565b5b61286487828801612394565b945050602061287587828801612427565b935050604061288687828801612427565b925050606061289787828801612427565b91505092959194509250565b5f6128ad82612561565b9050919050565b6128bd816128a3565b81146128c7575f5ffd5b50565b5f813590506128d8816128b4565b92915050565b5f602082840312156128f3576128f261227d565b5b5f612900848285016128ca565b91505092915050565b5f5ffd5b5f610220828403121561292357612922612909565b5b81905092915050565b61293581612561565b811461293f575f5ffd5b50565b5f813590506129508161292c565b92915050565b5f5f5f610260848603121561296e5761296d61227d565b5b5f61297b8682870161290d565b93505061022061298d86828701612942565b92505061024061299f868287016127e4565b9150509250925092565b5f6020820190506129bc5f830184612614565b92915050565b5f5f5f5f61028085870312156129db576129da61227d565b5b5f6129e88782880161290d565b9450506102206129fa878288016127e4565b93505061024085013567ffffffffffffffff811115612a1c57612a1b612281565b5b612a2887828801612394565b92505061026085013567ffffffffffffffff811115612a4a57612a49612281565b5b612a5687828801612394565b91505092959194509250565b5f81905092915050565b5f612a768261259a565b612a808185612a62565b9350612a908185602086016125b4565b80840191505092915050565b5f612aa78284612a6c565b915081905092915050565b7f796f7572206e6f742074686520617574686f72206f66207468697320626f756e5f8201527f7479000000000000000000000000000000000000000000000000000000000000602082015250565b5f612b0c6022836125a4565b9150612b1782612ab2565b604082019050919050565b5f6020820190508181035f830152612b3981612b00565b9050919050565b5f6080820190508181035f830152612b5881876125c2565b9050612b6760208301866125fa565b612b7460408301856125fa565b612b816060830184612572565b95945050505050565b7f4f6e6c7920617574686f722063616e20696e63726561736520646561646c696e5f8201527f6500000000000000000000000000000000000000000000000000000000000000602082015250565b5f612be46021836125a4565b9150612bef82612b8a565b604082019050919050565b5f6020820190508181035f830152612c1181612bd8565b9050919050565b7f426f756e747920616c726561647920617070726f7665640000000000000000005f82015250565b5f612c4c6017836125a4565b9150612c5782612c18565b602082019050919050565b5f6020820190508181035f830152612c7981612c40565b9050919050565b7f426f756e747920616c726561647920636c61696d6564000000000000000000005f82015250565b5f612cb46016836125a4565b9150612cbf82612c80565b602082019050919050565b5f6020820190508181035f830152612ce181612ca8565b9050919050565b7f4e657720646561646c696e65206d7573742062652067726561746572207468615f8201527f6e2063757272656e740000000000000000000000000000000000000000000000602082015250565b5f612d426029836125a4565b9150612d4d82612ce8565b604082019050919050565b5f6020820190508181035f830152612d6f81612d36565b9050919050565b5f6060820190508181035f830152612d8e81866125c2565b9050612d9d60208301856125fa565b612daa60408301846125fa565b949350505050565b7f4e487b71000000000000000000000000000000000000000000000000000000005f52602260045260245ffd5b5f6002820490506001821680612df657607f821691505b602082108103612e0957612e08612db2565b5b50919050565b7f426f756e747920646f6573206e6f7420657869737400000000000000000000005f82015250565b5f612e436015836125a4565b9150612e4e82612e0f565b602082019050919050565b5f6020820190508181035f830152612e7081612e37565b9050919050565b7f426f756e747920616c72656164792065786973747320666f72207468697320695f8201527f7373756500000000000000000000000000000000000000000000000000000000602082015250565b5f612ed16024836125a4565b9150612edc82612e77565b604082019050919050565b5f6020820190508181035f830152612efe81612ec5565b9050919050565b7f426f756e7479206d7573742062652067726561746572207468616e207a65726f5f82015250565b5f612f396020836125a4565b9150612f4482612f05565b602082019050919050565b5f6020820190508181035f830152612f6681612f2d565b9050919050565b5f604082019050612f805f830185612572565b612f8d6020830184612572565b9392505050565b5f81519050612fa281612411565b92915050565b5f60208284031215612fbd57612fbc61227d565b5b5f612fca84828501612f94565b91505092915050565b7f496e73756666696369656e7420616c6c6f77616e636520666f7220626f756e745f8201527f7900000000000000000000000000000000000000000000000000000000000000602082015250565b5f61302d6021836125a4565b915061303882612fd3565b604082019050919050565b5f6020820190508181035f83015261305a81613021565b9050919050565b7f496e73756666696369656e742062616c616e636520666f7220626f756e7479005f82015250565b5f613095601f836125a4565b91506130a082613061565b602082019050919050565b5f6020820190508181035f8301526130c281613089565b9050919050565b7f4e487b71000000000000000000000000000000000000000000000000000000005f52601160045260245ffd5b5f61310082612408565b915061310b83612408565b9250828201905080821115613123576131226130c9565b5b92915050565b7f446561646c696e65206d757374206265206d6f7265207468616e2034386820665f8201527f726f6d206e6f7700000000000000000000000000000000000000000000000000602082015250565b5f6131836027836125a4565b915061318e82613129565b604082019050919050565b5f6020820190508181035f8301526131b081613177565b9050919050565b5f6060820190506131ca5f830186612572565b6131d76020830185612572565b6131e460408301846125fa565b949350505050565b6131f581612609565b81146131ff575f5ffd5b50565b5f81519050613210816131ec565b92915050565b5f6020828403121561322b5761322a61227d565b5b5f61323884828501613202565b91505092915050565b5f819050815f5260205f209050919050565b5f6020601f8301049050919050565b5f82821b905092915050565b5f6008830261329d7fffffffffffffffffffffffffffffffffffffffffffffffffffffffffffffffff82613262565b6132a78683613262565b95508019841693508086168417925050509392505050565b5f6132d96132d46132cf84612408565b6124b4565b612408565b9050919050565b5f819050919050565b6132f2836132bf565b6133066132fe826132e0565b84845461326e565b825550505050565b5f5f905090565b61331d61330e565b6133288184846132e9565b505050565b5b8181101561334b576133405f82613315565b60018101905061332e565b5050565b601f8211156133905761336181613241565b61336a84613253565b81016020851015613379578190505b61338d61338585613253565b83018261332d565b50505b505050565b5f82821c905092915050565b5f6133b05f1984600802613395565b1980831691505092915050565b5f6133c883836133a1565b9150826002028217905092915050565b6133e18261259a565b67ffffffffffffffff8111156133fa576133f961229d565b5b6134048254612ddf565b61340f82828561334f565b5f60209050601f831160018114613440575f841561342e578287015190505b61343885826133bd565b86555061349f565b601f19841661344e86613241565b5f5b8281101561347557848901518255600182019150602085019450602081019050613450565b86831015613492578489015161348e601f8916826133a1565b8355505b6001600288020188555050505b505050505050565b5f6080820190508181035f8301526134bf81876125c2565b90506134ce60208301866125fa565b6134db60408301856125fa565b6134e860608301846125fa565b95945050505050565b7f4f6e6c79206465706c6f7965722063616e206368616e676520766572696669655f8201527f7200000000000000000000000000000000000000000000000000000000000000602082015250565b5f61354b6021836125a4565b9150613556826134f1565b604082019050919050565b5f6020820190508181035f8301526135788161353f565b9050919050565b7f4368616e67696e6720766572696669657273206973206f6e6c7920616c6c6f775f8201527f6564206f6e206465766e6574206f7220746573746e6574000000000000000000602082015250565b5f6135d96037836125a4565b91506135e48261357f565b604082019050919050565b5f6020820190508181035f830152613606816135cd565b9050919050565b5f61361782612561565b9050919050565b6136278161360d565b8114613631575f5ffd5b50565b5f815190506136428161361e565b92915050565b5f6020828403121561365d5761365c61227d565b5b5f61366a84828501613634565b91505092915050565b7f56657269666965722773207265706f7369746f727920616464726573732069735f8201527f206e6f7420736574000000000000000000000000000000000000000000000000602082015250565b5f6136cd6028836125a4565b91506136d882613673565b604082019050919050565b5f6020820190508181035f8301526136fa816136c1565b9050919050565b7f4f6e6c7920617574686f722063616e20636c6f736520626f756e7479000000005f82015250565b5f613735601c836125a4565b915061374082613701565b602082019050919050565b5f6020820190508181035f83015261376281613729565b9050919050565b7f426f756e747920646561646c696e65206e6f74207061737365642079657400005f82015250565b5f61379d601e836125a4565b91506137a882613769565b602082019050919050565b5f6020820190508181035f8301526137ca81613791565b9050919050565b5f6020820190508181035f8301526137e981846125c2565b905092915050565b5f6040820190506138045f830185612572565b61381160208301846125fa565b9392505050565b7f4163636f756e7420616c726561647920766572696669656400000000000000005f82015250565b5f61384c6018836125a4565b915061385782613818565b602082019050919050565b5f6020820190508181035f83015261387981613840565b9050919050565b7f55736572204944206d7573742062652067726561746572207468616e207a65725f8201527f6f00000000000000000000000000000000000000000000000000000000000000602082015250565b5f6138da6021836125a4565b91506138e582613880565b604082019050919050565b5f6020820190508181035f830152613907816138ce565b9050919050565b7f4163636f756e7420616464726573732063616e6e6f74206265207a65726f00005f82015250565b5f613942601e836125a4565b915061394d8261390e565b602082019050919050565b5f6020820190508181035f83015261396f81613936565b9050919050565b61397f816127c5565b82525050565b5f6040820190506139985f830185612572565b6139a56020830184613976565b9392505050565b7f636f6d706c6574656400000000000000000000000000000000000000000000005f82015250565b5f6139e0600983612a62565b91506139eb826139ac565b600982019050919050565b5f613a00826139d4565b9150819050919050565b7f4973737565206973206e6f7420636f6d706c65746564000000000000000000005f82015250565b5f613a3e6016836125a4565b9150613a4982613a0a565b602082019050919050565b5f6020820190508181035f830152613a6b81613a32565b9050919050565b7f55736572206e6f742076657269666965640000000000000000000000000000005f82015250565b5f613aa66011836125a4565b9150613ab182613a72565b602082019050919050565b5f6020820190508181035f830152613ad381613a9a565b9050919050565b7f426f756e747920646f6573206e6f7420657869737420666f72207468697320695f8201527f7373756500000000000000000000000000000000000000000000000000000000602082015250565b5f613b346024836125a4565b9150613b3f82613ada565b604082019050919050565b5f6020820190508181035f830152613b6181613b28565b9050919050565b7f426f756e7479206e6f7420617070726f766564207965740000000000000000005f82015250565b5f613b9c6017836125a4565b9150613ba782613b68565b602082019050919050565b5f6020820190508181035f830152613bc981613b90565b9050919050565b7f426f756e747920646561646c696e6520706173736564000000000000000000005f82015250565b5f613c046016836125a4565b9150613c0f82613bd0565b602082019050919050565b5f6020820190508181035f830152613c3181613bf8565b9050919050565b7f417574686f722063616e6e6f7420636c61696d207468656972206f776e20626f5f8201527f756e747900000000000000000000000000000000000000000000000000000000602082015250565b5f613c926024836125a4565b9150613c9d82613c38565b604082019050919050565b5f6020820190508181035f830152613cbf81613c86565b9050919050565b5f6080820190508181035f830152613cde81876125c2565b9050613ced60208301866125fa565b613cfa6040830185612572565b613d076060830184613976565b95945050505050565b5f7fffffffff0000000000000000000000000000000000000000000000000000000082169050919050565b613d4481613d10565b82525050565b5f60089050919050565b5f81905092915050565b5f819050919050565b5f819050919050565b613d7981613d67565b82525050565b5f613d8a8383613d70565b60208301905092915050565b5f602082019050919050565b613dab81613d4a565b613db58184613d54565b9250613dc082613d5e565b805f5b83811015613df0578151613dd78782613d7f565b9650613de283613d96565b925050600181019050613dc3565b505050505050565b7f4e487b71000000000000000000000000000000000000000000000000000000005f52602160045260245ffd5b60028110613e3657613e35613df8565b5b50565b5f819050613e4682613e25565b919050565b5f613e5582613e39565b9050919050565b613e6581613e4b565b82525050565b61014082015f820151613e805f850182613d3b565b506020820151613e936020850182613da2565b506040820151613ea7610120850182613e5c565b50505050565b60a082015f820151613ec15f850182612697565b506020820151613ed46020850182613d3b565b506040820151613ee760408501826126ee565b506060820151613efa60608501826126ee565b506080820151613f0d6080850182613d70565b50505050565b61022082015f820151613f285f850182613e6b565b506020820151613f3c610140850182613d70565b506040820151613f506101608501826126ee565b506060820151613f64610180850182613ead565b50505050565b613f7381613d67565b82525050565b613f8281613d10565b82525050565b5f61028082019050613f9c5f830187613f13565b613faa610220830186613f6a565b613fb8610240830185612572565b613fc6610260830184613f79565b95945050505050565b5f613fd982612495565b9150613fe483612495565b9250828201905073ffffffffffffffffffffffffffffffffffffffff8111156140105761400f6130c9565b5b92915050565b5f81905092915050565b50565b5f61402e5f83614016565b915061403982614020565b5f82019050919050565b5f61404d82614023565b9150819050919050565b5f5ffd5b5f5ffd5b5f5f8585111561407257614071614057565b5b838611156140835761408261405b565b5b6001850283019150848603905094509492505050565b5f5ffd5b6140a681613d10565b81146140b0575f5ffd5b50565b5f813590506140c18161409d565b92915050565b5f67ffffffffffffffff8211156140e1576140e061229d565b5b602082029050919050565b5f5ffd5b6140f981613d67565b8114614103575f5ffd5b50565b5f81359050614114816140f0565b92915050565b5f61412c614127846140c7565b6122fb565b90508060208402830185811115614146576141456140ec565b5b835b8181101561416f578061415b8882614106565b845260208401935050602081019050614148565b5050509392505050565b5f82601f83011261418d5761418c612285565b5b600861419a84828561411a565b91505092915050565b600281106141af575f5ffd5b50565b5f813590506141c0816141a3565b92915050565b5f61014082840312156141dc576141db614099565b5b6141e660606122fb565b90505f6141f5848285016140b3565b5f83015250602061420884828501614179565b60208301525061012061421d848285016141b2565b60408301525092915050565b5f60a0828403121561423e5761423d614099565b5b61424860a06122fb565b90505f61425784828501612942565b5f83015250602061426a848285016140b3565b602083015250604061427e84828501612427565b604083015250606061429284828501612427565b60608301525060806142a684828501614106565b60808301525092915050565b5f61022082840312156142c8576142c7614099565b5b6142d260806122fb565b90505f6142e1848285016141c6565b5f830152506101406142f584828501614106565b60208301525061016061430a84828501612427565b60408301525061018061431f84828501614229565b60608301525092915050565b5f61022082840312156143415761434061227d565b5b5f61434e848285016142b2565b91505092915050565b5f61436182612408565b915061436c83612408565b9250828203905081811115614384576143836130c9565b5b92915050565b5f6102208201905061439e5f830184613f13565b92915050565b5f81519050919050565b5f6143b8826143a4565b6143c28185614016565b93506143d28185602086016125b4565b80840191505092915050565b5f6143e982866143ae565b91506143f582856143ae565b915061440182846143ae565b9150819050949350505050565b5f61441982846143ae565b915081905092915050565b5f81519050614432816140f0565b92915050565b5f6020828403121561444d5761444c61227d565b5b5f61445a84828501614424565b9150509291505056fea264697066735822122013cb8362b8294008ed9c6755680478e8492ad5451aa6179f02ab709d9cc1578e64736f6c634300081d0033608060405234801561000f575f5ffd5b50604051611fd0380380611fd083398181016040528101906100319190610342565b6100435f5f1b8361007c60201b60201c565b506100747fb19546dff01e856fb3f010c267a7b1c60363cf8a4664e21cc89c26224620214e8261007c60201b60201c565b505050610380565b5f5f61008e84846100c560201b60201c565b905080156100bb576100b98360015f8781526020019081526020015f206101ba60201b90919060201c565b505b8091505092915050565b5f6100d683836101ed60201b60201c565b6101b05760015f5f8581526020019081526020015f205f015f8473ffffffffffffffffffffffffffffffffffffffff1673ffffffffffffffffffffffffffffffffffffffff1681526020019081526020015f205f6101000a81548160ff02191690831515021790555061014d61025060201b60201c565b73ffffffffffffffffffffffffffffffffffffffff168273ffffffffffffffffffffffffffffffffffffffff16847f2f8788117e7eff1d82e926ec794901d17c78024a50270940304540a733656f0d60405160405180910390a4600190506101b4565b5f90505b92915050565b5f6101e5835f018373ffffffffffffffffffffffffffffffffffffffff165f1b61025760201b60201c565b905092915050565b5f5f5f8481526020019081526020015f205f015f8373ffffffffffffffffffffffffffffffffffffffff1673ffffffffffffffffffffffffffffffffffffffff1681526020019081526020015f205f9054906101000a900460ff16905092915050565b5f33905090565b5f61026883836102c460201b60201c565b6102ba57825f0182908060018154018082558091505060019003905f5260205f20015f9091909190915055825f0180549050836001015f8481526020019081526020015f2081905550600190506102be565b5f90505b92915050565b5f5f836001015f8481526020019081526020015f20541415905092915050565b5f5ffd5b5f73ffffffffffffffffffffffffffffffffffffffff82169050919050565b5f610311826102e8565b9050919050565b61032181610307565b811461032b575f5ffd5b50565b5f8151905061033c81610318565b92915050565b5f5f60408385031215610358576103576102e4565b5b5f6103658582860161032e565b92505060206103768582860161032e565b9150509250929050565b611c438061038d5f395ff3fe608060405234801561000f575f5ffd5b5060043610610135575f3560e01c8063853b5d19116100b6578063c5df91b51161007a578063c5df91b51461036b578063ca0d535814610387578063ca15c873146103a3578063d547741f146103d3578063e58378bb146103ef578063f2fde38b1461040d57610135565b8063853b5d19146102b55780639010d07c146102d157806391d1485414610301578063a217fddf14610331578063ada8f9191461034f57610135565b80632f2ff15d116100fd5780632f2ff15d1461021557806336568abe14610231578063755e936f1461024d57806381e4c9a31461026957806384cf84e11461029957610135565b806301ffc9a7146101395780631af6c43114610169578063248a9ca3146101995780632505a3bd146101c95780632ad82eea146101f9575b5f5ffd5b610153600480360381019061014e91906113a4565b610429565b60405161016091906113e9565b60405180910390f35b610183600480360381019061017e9190611435565b6104a2565b60405161019091906113e9565b60405180910390f35b6101b360048036038101906101ae9190611435565b6104c8565b6040516101c0919061146f565b60405180910390f35b6101e360048036038101906101de91906115c4565b6104e4565b6040516101f091906113e9565b60405180910390f35b610213600480360381019061020e91906115c4565b610511565b005b61022f600480360381019061022a9190611665565b610620565b005b61024b60048036038101906102469190611665565b610642565b005b61026760048036038101906102629190611741565b6106bd565b005b610283600480360381019061027e9190611741565b6107ca565b60405161029091906113e9565b60405180910390f35b6102b360048036038101906102ae9190611435565b6107f7565b005b6102cf60048036038101906102ca9190611741565b6108ce565b005b6102eb60048036038101906102e691906117bb565b6109dd565b6040516102f89190611808565b60405180910390f35b61031b60048036038101906103169190611665565b610a09565b60405161032891906113e9565b60405180910390f35b610339610a6c565b604051610346919061146f565b60405180910390f35b61036960048036038101906103649190611821565b610a72565b005b61038560048036038101906103809190611435565b610a8d565b005b6103a1600480360381019061039c91906115c4565b610b62565b005b6103bd60048036038101906103b89190611435565b610c6f565b6040516103ca919061185b565b60405180910390f35b6103ed60048036038101906103e89190611665565b610c90565b005b6103f7610cb2565b604051610404919061146f565b60405180910390f35b61042760048036038101906104229190611821565b610cd6565b005b5f7f5a05180f000000000000000000000000000000000000000000000000000000007bffffffffffffffffffffffffffffffffffffffffffffffffffffffff1916827bffffffffffffffffffffffffffffffffffffffffffffffffffffffff1916148061049b575061049a82610d5b565b5b9050919050565b5f60035f8381526020019081526020015f205f9054906101000a900460ff169050919050565b5f5f5f8381526020019081526020015f20600101549050919050565b5f60045f838051906020012081526020019081526020015f205f9054906101000a900460ff169050919050565b7fb19546dff01e856fb3f010c267a7b1c60363cf8a4664e21cc89c26224620214e61053b81610dd4565b5f8280519060200120905060045f8281526020019081526020015f205f9054906101000a900460ff16156105a4576040517f08c379a000000000000000000000000000000000000000000000000000000000815260040161059b906118ce565b60405180910390fd5b600160045f8381526020019081526020015f205f6101000a81548160ff0219169083151502179055503373ffffffffffffffffffffffffffffffffffffffff167fcbfa55581c230aeb174d969838d927cdd297755dfb967a33134312f1377ee71d84604051610613919061193c565b60405180910390a2505050565b610629826104c8565b61063281610dd4565b61063c8383610de8565b50505050565b61064a610e2b565b73ffffffffffffffffffffffffffffffffffffffff168173ffffffffffffffffffffffffffffffffffffffff16146106ae576040517f6697b23200000000000000000000000000000000000000000000000000000000815260040160405180910390fd5b6106b88282610e32565b505050565b7fb19546dff01e856fb3f010c267a7b1c60363cf8a4664e21cc89c26224620214e6106e781610dd4565b5f8280519060200120905060025f8281526020019081526020015f205f9054906101000a900460ff1661074f576040517f08c379a0000000000000000000000000000000000000000000000000000000008152600401610746906119a6565b60405180910390fd5b5f60025f8381526020019081526020015f205f6101000a81548160ff0219169083151502179055503373ffffffffffffffffffffffffffffffffffffffff167f66e43f8252a3257fe010a4fd6ae50f57624762cc64a6eceadb04b18cfdefac7d846040516107bd9190611a16565b60405180910390a2505050565b5f60025f838051906020012081526020019081526020015f205f9054906101000a900460ff169050919050565b7fb19546dff01e856fb3f010c267a7b1c60363cf8a4664e21cc89c26224620214e61082181610dd4565b61082a826104a2565b1561086a576040517f08c379a000000000000000000000000000000000000000000000000000000000815260040161086190611a80565b60405180910390fd5b600160035f8481526020019081526020015f205f6101000a81548160ff0219169083151502179055507f010120d82c0c66b257c0ea628d405b1d3c2d37bb8dd9141f6c5c12cb0375c572826040516108c2919061146f565b60405180910390a15050565b7fb19546dff01e856fb3f010c267a7b1c60363cf8a4664e21cc89c26224620214e6108f881610dd4565b5f8280519060200120905060025f8281526020019081526020015f205f9054906101000a900460ff1615610961576040517f08c379a0000000000000000000000000000000000000000000000000000000008152600401610958906118ce565b60405180910390fd5b600160025f8381526020019081526020015f205f6101000a81548160ff0219169083151502179055503373ffffffffffffffffffffffffffffffffffffffff167f0a249d4766726d36cb6d6ac22cf998dc9fc02bb4ff9fda73ec1e3061c8a1db09846040516109d09190611a16565b60405180910390a2505050565b5f610a018260015f8681526020019081526020015f20610e7590919063ffffffff16565b905092915050565b5f5f5f8481526020019081526020015f205f015f8373ffffffffffffffffffffffffffffffffffffffff1673ffffffffffffffffffffffffffffffffffffffff1681526020019081526020015f205f9054906101000a900460ff16905092915050565b5f5f1b81565b610a7e5f5f1b82610620565b610a8a5f5f1b33610642565b50565b7fb19546dff01e856fb3f010c267a7b1c60363cf8a4664e21cc89c26224620214e610ab781610dd4565b610ac0826104a2565b610aff576040517f08c379a0000000000000000000000000000000000000000000000000000000008152600401610af690611b0e565b60405180910390fd5b5f60035f8481526020019081526020015f205f6101000a81548160ff0219169083151502179055507f4072861add20da436ef0a8274b90d102aea17b603f972cc8196d51f1a5d5617982604051610b56919061146f565b60405180910390a15050565b7fb19546dff01e856fb3f010c267a7b1c60363cf8a4664e21cc89c26224620214e610b8c81610dd4565b5f8280519060200120905060045f8281526020019081526020015f205f9054906101000a900460ff16610bf4576040517f08c379a0000000000000000000000000000000000000000000000000000000008152600401610beb906119a6565b60405180910390fd5b5f60045f8381526020019081526020015f205f6101000a81548160ff0219169083151502179055503373ffffffffffffffffffffffffffffffffffffffff167f69c40cdda8ad6e074bf320a4a76804a6652eb5231bda91b690dcb98010b2707984604051610c62919061193c565b60405180910390a2505050565b5f610c8960015f8481526020019081526020015f20610e8c565b9050919050565b610c99826104c8565b610ca281610dd4565b610cac8383610e32565b50505050565b7fb19546dff01e856fb3f010c267a7b1c60363cf8a4664e21cc89c26224620214e81565b5f610d017fb19546dff01e856fb3f010c267a7b1c60363cf8a4664e21cc89c26224620214e5f6109dd565b9050610d2d7fb19546dff01e856fb3f010c267a7b1c60363cf8a4664e21cc89c26224620214e82610c90565b610d577fb19546dff01e856fb3f010c267a7b1c60363cf8a4664e21cc89c26224620214e83610620565b5050565b5f7f7965db0b000000000000000000000000000000000000000000000000000000007bffffffffffffffffffffffffffffffffffffffffffffffffffffffff1916827bffffffffffffffffffffffffffffffffffffffffffffffffffffffff19161480610dcd5750610dcc82610e9f565b5b9050919050565b610de581610de0610e2b565b610f08565b50565b5f5f610df48484610f59565b90508015610e2157610e1f8360015f8781526020019081526020015f2061104290919063ffffffff16565b505b8091505092915050565b5f33905090565b5f5f610e3e848461106f565b90508015610e6b57610e698360015f8781526020019081526020015f2061115890919063ffffffff16565b505b8091505092915050565b5f610e82835f0183611185565b5f1c905092915050565b5f610e98825f016111ac565b9050919050565b5f7f01ffc9a7000000000000000000000000000000000000000000000000000000007bffffffffffffffffffffffffffffffffffffffffffffffffffffffff1916827bffffffffffffffffffffffffffffffffffffffffffffffffffffffff1916149050919050565b610f128282610a09565b610f555780826040517fe2517d3f000000000000000000000000000000000000000000000000000000008152600401610f4c929190611b2c565b60405180910390fd5b5050565b5f610f648383610a09565b6110385760015f5f8581526020019081526020015f205f015f8473ffffffffffffffffffffffffffffffffffffffff1673ffffffffffffffffffffffffffffffffffffffff1681526020019081526020015f205f6101000a81548160ff021916908315150217905550610fd5610e2b565b73ffffffffffffffffffffffffffffffffffffffff168273ffffffffffffffffffffffffffffffffffffffff16847f2f8788117e7eff1d82e926ec794901d17c78024a50270940304540a733656f0d60405160405180910390a46001905061103c565b5f90505b92915050565b5f611067835f018373ffffffffffffffffffffffffffffffffffffffff165f1b6111bb565b905092915050565b5f61107a8383610a09565b1561114e575f5f5f8581526020019081526020015f205f015f8473ffffffffffffffffffffffffffffffffffffffff1673ffffffffffffffffffffffffffffffffffffffff1681526020019081526020015f205f6101000a81548160ff0219169083151502179055506110eb610e2b565b73ffffffffffffffffffffffffffffffffffffffff168273ffffffffffffffffffffffffffffffffffffffff16847ff6391f5c32d9c69d2a47ea670b442974b53935d1edc7fd64eb21e047a839171b60405160405180910390a460019050611152565b5f90505b92915050565b5f61117d835f018373ffffffffffffffffffffffffffffffffffffffff165f1b611222565b905092915050565b5f825f01828154811061119b5761119a611b53565b5b905f5260205f200154905092915050565b5f815f01805490509050919050565b5f6111c6838361131e565b61121857825f0182908060018154018082558091505060019003905f5260205f20015f9091909190915055825f0180549050836001015f8481526020019081526020015f20819055506001905061121c565b5f90505b92915050565b5f5f836001015f8481526020019081526020015f205490505f8114611313575f60018261124f9190611bad565b90505f6001865f01805490506112659190611bad565b90508082146112cb575f865f01828154811061128457611283611b53565b5b905f5260205f200154905080875f0184815481106112a5576112a4611b53565b5b905f5260205f20018190555083876001015f8381526020019081526020015f2081905550505b855f018054806112de576112dd611be0565b5b600190038181905f5260205f20015f90559055856001015f8681526020019081526020015f205f905560019350505050611318565b5f9150505b92915050565b5f5f836001015f8481526020019081526020015f20541415905092915050565b5f604051905090565b5f5ffd5b5f5ffd5b5f7fffffffff0000000000000000000000000000000000000000000000000000000082169050919050565b6113838161134f565b811461138d575f5ffd5b50565b5f8135905061139e8161137a565b92915050565b5f602082840312156113b9576113b8611347565b5b5f6113c684828501611390565b91505092915050565b5f8115159050919050565b6113e3816113cf565b82525050565b5f6020820190506113fc5f8301846113da565b92915050565b5f819050919050565b61141481611402565b811461141e575f5ffd5b50565b5f8135905061142f8161140b565b92915050565b5f6020828403121561144a57611449611347565b5b5f61145784828501611421565b91505092915050565b61146981611402565b82525050565b5f6020820190506114825f830184611460565b92915050565b5f5ffd5b5f5ffd5b5f601f19601f8301169050919050565b7f4e487b71000000000000000000000000000000000000000000000000000000005f52604160045260245ffd5b6114d682611490565b810181811067ffffffffffffffff821117156114f5576114f46114a0565b5b80604052505050565b5f61150761133e565b905061151382826114cd565b919050565b5f67ffffffffffffffff821115611532576115316114a0565b5b61153b82611490565b9050602081019050919050565b828183375f83830152505050565b5f61156861156384611518565b6114fe565b9050828152602081018484840111156115845761158361148c565b5b61158f848285611548565b509392505050565b5f82601f8301126115ab576115aa611488565b5b81356115bb848260208601611556565b91505092915050565b5f602082840312156115d9576115d8611347565b5b5f82013567ffffffffffffffff8111156115f6576115f561134b565b5b61160284828501611597565b91505092915050565b5f73ffffffffffffffffffffffffffffffffffffffff82169050919050565b5f6116348261160b565b9050919050565b6116448161162a565b811461164e575f5ffd5b50565b5f8135905061165f8161163b565b92915050565b5f5f6040838503121561167b5761167a611347565b5b5f61168885828601611421565b925050602061169985828601611651565b9150509250929050565b5f67ffffffffffffffff8211156116bd576116bc6114a0565b5b6116c682611490565b9050602081019050919050565b5f6116e56116e0846116a3565b6114fe565b9050828152602081018484840111156117015761170061148c565b5b61170c848285611548565b509392505050565b5f82601f83011261172857611727611488565b5b81356117388482602086016116d3565b91505092915050565b5f6020828403121561175657611755611347565b5b5f82013567ffffffffffffffff8111156117735761177261134b565b5b61177f84828501611714565b91505092915050565b5f819050919050565b61179a81611788565b81146117a4575f5ffd5b50565b5f813590506117b581611791565b92915050565b5f5f604083850312156117d1576117d0611347565b5b5f6117de85828601611421565b92505060206117ef858286016117a7565b9150509250929050565b6118028161162a565b82525050565b5f60208201905061181b5f8301846117f9565b92915050565b5f6020828403121561183657611835611347565b5b5f61184384828501611651565b91505092915050565b61185581611788565b82525050565b5f60208201905061186e5f83018461184c565b92915050565b5f82825260208201905092915050565b7f4b657920697320616c72656164792076616c69640000000000000000000000005f82015250565b5f6118b8601483611874565b91506118c382611884565b602082019050919050565b5f6020820190508181035f8301526118e5816118ac565b9050919050565b5f81519050919050565b8281835e5f83830152505050565b5f61190e826118ec565b6119188185611874565b93506119288185602086016118f6565b61193181611490565b840191505092915050565b5f6020820190508181035f8301526119548184611904565b905092915050565b7f43616e6e6f74207265766f6b6520696e76616c6964206b6579000000000000005f82015250565b5f611990601983611874565b915061199b8261195c565b602082019050919050565b5f6020820190508181035f8301526119bd81611984565b9050919050565b5f81519050919050565b5f82825260208201905092915050565b5f6119e8826119c4565b6119f281856119ce565b9350611a028185602086016118f6565b611a0b81611490565b840191505092915050565b5f6020820190508181035f830152611a2e81846119de565b905092915050565b7f496d616765494420697320616c726561647920737570706f72746564000000005f82015250565b5f611a6a601c83611874565b9150611a7582611a36565b602082019050919050565b5f6020820190508181035f830152611a9781611a5e565b9050919050565b7f43616e6e6f74207265766f6b6520756e737570706f7274656420496d616765495f8201527f4400000000000000000000000000000000000000000000000000000000000000602082015250565b5f611af8602183611874565b9150611b0382611a9e565b604082019050919050565b5f6020820190508181035f830152611b2581611aec565b9050919050565b5f604082019050611b3f5f8301856117f9565b611b4c6020830184611460565b9392505050565b7f4e487b71000000000000000000000000000000000000000000000000000000005f52603260045260245ffd5b7f4e487b71000000000000000000000000000000000000000000000000000000005f52601160045260245ffd5b5f611bb782611788565b9150611bc283611788565b9250828203905081811115611bda57611bd9611b80565b5b92915050565b7f4e487b71000000000000000000000000000000000000000000000000000000005f52603160045260245ffdfea264697066735822122098f1d496ec1b119b68bfa7cc463910ba047169f12bda572967e0b6d5b3c6480564736f6c634300081d003360e060405234801561000f575f5ffd5b506040516126ac3803806126ac8339818101604052810190610031919061022d565b808073ffffffffffffffffffffffffffffffffffffffff1660c08173ffffffffffffffffffffffffffffffffffffffff16815250505061007561014960201b60201c565b156100ac576040517f7a47c9a200000000000000000000000000000000000000000000000000000000815260040160405180910390fd5b63deafbeef60e01b6040516100c0906101b1565b6100ca9190610292565b604051809103905ff0801580156100e3573d5f5f3e3d5ffd5b5073ffffffffffffffffffffffffffffffffffffffff1660a08173ffffffffffffffffffffffffffffffffffffffff168152505060018081111561012a576101296102ab565b5b608081600181111561013f5761013e6102ab565b5b81525050506102d8565b5f60014614806101595750600a46145b806101645750608946145b80610170575061014446145b8061017c57506101e046145b80610188575061210546145b80610194575061a4b146145b806101a0575061a4ba46145b806101ac575061e70846145b905090565b610ffb806116b183390190565b5f5ffd5b5f73ffffffffffffffffffffffffffffffffffffffff82169050919050565b5f6101eb826101c2565b9050919050565b5f6101fc826101e1565b9050919050565b61020c816101f2565b8114610216575f5ffd5b50565b5f8151905061022781610203565b92915050565b5f60208284031215610242576102416101be565b5b5f61024f84828501610219565b91505092915050565b5f7fffffffff0000000000000000000000000000000000000000000000000000000082169050919050565b61028c81610258565b82525050565b5f6020820190506102a55f830184610283565b92915050565b7f4e487b71000000000000000000000000000000000000000000000000000000005f52602160045260245ffd5b60805160a05160c05161139461031d5f395f818161011401528181610240015261053401525f818160ef015261019201525f818161013a015261026401526113945ff3fe608060405234801561000f575f5ffd5b5060043610610055575f3560e01c806308c84e70146100595780633fd66f22146100775780639a44ea8414610095578063c4fa74e5146100b3578063f4cbae94146100cf575b5f5ffd5b6100616100ed565b60405161006e9190610747565b60405180910390f35b61007f610111565b60405161008c9190610780565b60405180910390f35b61009d610138565b6040516100aa919061080c565b60405180910390f35b6100cd60048036038101906100c89190610918565b61015c565b005b6100d761023e565b6040516100e49190610780565b60405180910390f35b7f000000000000000000000000000000000000000000000000000000000000000081565b5f7f0000000000000000000000000000000000000000000000000000000000000000905090565b7f000000000000000000000000000000000000000000000000000000000000000081565b610175848036038101906101709190610c7d565b610262565b610190848036038101906101899190610c7d565b83836102f6565b7f000000000000000000000000000000000000000000000000000000000000000073ffffffffffffffffffffffffffffffffffffffff1663ab750e756101e7865f018036038101906101e29190610ca9565b610612565b866101400135866040518463ffffffff1660e01b815260040161020c93929190610d44565b5f6040518083038186803b158015610222575f5ffd5b505afa158015610234573d5f5f3e3d5ffd5b5050505050505050565b7f000000000000000000000000000000000000000000000000000000000000000081565b7f0000000000000000000000000000000000000000000000000000000000000000600181111561029557610294610799565b5b6102a1825f01516106c0565b60018111156102b3576102b2610799565b5b146102f3576040517f08c379a00000000000000000000000000000000000000000000000000000000081526004016102ea90610dda565b60405180910390fd5b50565b8173ffffffffffffffffffffffffffffffffffffffff1683606001515f015173ffffffffffffffffffffffffffffffffffffffff161461036b576040517f08c379a000000000000000000000000000000000000000000000000000000000815260040161036290610e42565b60405180910390fd5b807bffffffffffffffffffffffffffffffffffffffffffffffffffffffff19168360600151602001517bffffffffffffffffffffffffffffffffffffffffffffffffffffffff1916146103f3576040517f08c379a00000000000000000000000000000000000000000000000000000000081526004016103ea90610eaa565b60405180910390fd5b468360600151604001511461043d576040517f08c379a000000000000000000000000000000000000000000000000000000000815260040161043490610f12565b60405180910390fd5b4383606001516060015110610487576040517f08c379a000000000000000000000000000000000000000000000000000000000815260040161047e90610fa0565b60405180910390fd5b4361010084606001516060015161049e9190610feb565b10156104df576040517f08c379a00000000000000000000000000000000000000000000000000000000081526004016104d69061108e565b60405180910390fd5b8260600151606001514083606001516080015114610532576040517f08c379a0000000000000000000000000000000000000000000000000000000008152600401610529906110f6565b60405180910390fd5b7f000000000000000000000000000000000000000000000000000000000000000073ffffffffffffffffffffffffffffffffffffffff16631af6c43184602001516040518263ffffffff1660e01b815260040161058f9190611114565b602060405180830381865afa1580156105aa573d5f5f3e3d5ffd5b505050506040513d601f19601f820116820180604052508101906105ce9190611162565b61060d576040517f08c379a0000000000000000000000000000000000000000000000000000000008152600401610604906111d7565b60405180910390fd5b505050565b606060018081111561062757610626610799565b5b8260400151600181111561063e5761063d610799565b5b0361068f575f82602001515f6008811061065b5761065a6111f5565b5b60200201519050825f015181604051602001610678929190611262565b6040516020818303038152906040529150506106bb565b815f015182602001516040516020016106a9929190611332565b60405160208183030381529060405290505b919050565b5f81604001519050919050565b5f73ffffffffffffffffffffffffffffffffffffffff82169050919050565b5f819050919050565b5f61070f61070a610705846106cd565b6106ec565b6106cd565b9050919050565b5f610720826106f5565b9050919050565b5f61073182610716565b9050919050565b61074181610727565b82525050565b5f60208201905061075a5f830184610738565b92915050565b5f61076a82610716565b9050919050565b61077a81610760565b82525050565b5f6020820190506107935f830184610771565b92915050565b7f4e487b71000000000000000000000000000000000000000000000000000000005f52602160045260245ffd5b600281106107d7576107d6610799565b5b50565b5f8190506107e7826107c6565b919050565b5f6107f6826107da565b9050919050565b610806816107ec565b82525050565b5f60208201905061081f5f8301846107fd565b92915050565b5f604051905090565b5f5ffd5b5f5ffd5b5f610220828403121561084c5761084b610832565b5b81905092915050565b5f819050919050565b61086781610855565b8114610871575f5ffd5b50565b5f813590506108828161085e565b92915050565b5f610892826106cd565b9050919050565b6108a281610888565b81146108ac575f5ffd5b50565b5f813590506108bd81610899565b92915050565b5f7fffffffff0000000000000000000000000000000000000000000000000000000082169050919050565b6108f7816108c3565b8114610901575f5ffd5b50565b5f81359050610912816108ee565b92915050565b5f5f5f5f61028085870312156109315761093061082e565b5b5f61093e87828801610836565b94505061022061095087828801610874565b935050610240610962878288016108af565b92505061026061097487828801610904565b91505092959194509250565b5f5ffd5b5f601f19601f8301169050919050565b7f4e487b71000000000000000000000000000000000000000000000000000000005f52604160045260245ffd5b6109ca82610984565b810181811067ffffffffffffffff821117156109e9576109e8610994565b5b80604052505050565b5f6109fb610825565b9050610a0782826109c1565b919050565b5f5ffd5b5f67ffffffffffffffff821115610a2a57610a29610994565b5b602082029050919050565b5f5ffd5b5f610a4b610a4684610a10565b6109f2565b90508060208402830185811115610a6557610a64610a35565b5b835b81811015610a8e5780610a7a8882610874565b845260208401935050602081019050610a67565b5050509392505050565b5f82601f830112610aac57610aab610a0c565b5b6008610ab9848285610a39565b91505092915050565b60028110610ace575f5ffd5b50565b5f81359050610adf81610ac2565b92915050565b5f6101408284031215610afb57610afa610980565b5b610b0560606109f2565b90505f610b1484828501610904565b5f830152506020610b2784828501610a98565b602083015250610120610b3c84828501610ad1565b60408301525092915050565b5f819050919050565b610b5a81610b48565b8114610b64575f5ffd5b50565b5f81359050610b7581610b51565b92915050565b5f60a08284031215610b9057610b8f610980565b5b610b9a60a06109f2565b90505f610ba9848285016108af565b5f830152506020610bbc84828501610904565b6020830152506040610bd084828501610b67565b6040830152506060610be484828501610b67565b6060830152506080610bf884828501610874565b60808301525092915050565b5f6102208284031215610c1a57610c19610980565b5b610c2460806109f2565b90505f610c3384828501610ae5565b5f83015250610140610c4784828501610874565b602083015250610160610c5c84828501610b67565b604083015250610180610c7184828501610b7b565b60608301525092915050565b5f6102208284031215610c9357610c9261082e565b5b5f610ca084828501610c04565b91505092915050565b5f6101408284031215610cbf57610cbe61082e565b5b5f610ccc84828501610ae5565b91505092915050565b5f81519050919050565b5f82825260208201905092915050565b8281835e5f83830152505050565b5f610d0782610cd5565b610d118185610cdf565b9350610d21818560208601610cef565b610d2a81610984565b840191505092915050565b610d3e81610855565b82525050565b5f6060820190508181035f830152610d5c8186610cfd565b9050610d6b6020830185610d35565b610d786040830184610d35565b949350505050565b5f82825260208201905092915050565b7f496e76616c69642070726f6f66206d6f646500000000000000000000000000005f82015250565b5f610dc4601283610d80565b9150610dcf82610d90565b602082019050919050565b5f6020820190508181035f830152610df181610db8565b9050919050565b7f496e76616c69642070726f7665720000000000000000000000000000000000005f82015250565b5f610e2c600e83610d80565b9150610e3782610df8565b602082019050919050565b5f6020820190508181035f830152610e5981610e20565b9050919050565b7f496e76616c69642073656c6563746f72000000000000000000000000000000005f82015250565b5f610e94601083610d80565b9150610e9f82610e60565b602082019050919050565b5f6020820190508181035f830152610ec181610e88565b9050919050565b7f496e76616c696420636861696e206964000000000000000000000000000000005f82015250565b5f610efc601083610d80565b9150610f0782610ec8565b602082019050919050565b5f6020820190508181035f830152610f2981610ef0565b9050919050565b7f496e76616c696420626c6f636b206e756d6265723a20626c6f636b2066726f6d5f8201527f2066757475726500000000000000000000000000000000000000000000000000602082015250565b5f610f8a602783610d80565b9150610f9582610f30565b604082019050919050565b5f6020820190508181035f830152610fb781610f7e565b9050919050565b7f4e487b71000000000000000000000000000000000000000000000000000000005f52601160045260245ffd5b5f610ff582610b48565b915061100083610b48565b925082820190508082111561101857611017610fbe565b5b92915050565b7f496e76616c696420626c6f636b206e756d6265723a20626c6f636b20746f6f205f8201527f6f6c640000000000000000000000000000000000000000000000000000000000602082015250565b5f611078602383610d80565b91506110838261101e565b604082019050919050565b5f6020820190508181035f8301526110a58161106c565b9050919050565b7f496e76616c696420626c6f636b206861736800000000000000000000000000005f82015250565b5f6110e0601283610d80565b91506110eb826110ac565b602082019050919050565b5f6020820190508181035f83015261110d816110d4565b9050919050565b5f6020820190506111275f830184610d35565b92915050565b5f8115159050919050565b6111418161112d565b811461114b575f5ffd5b50565b5f8151905061115c81611138565b92915050565b5f602082840312156111775761117661082e565b5b5f6111848482850161114e565b91505092915050565b7f556e737570706f727465642043616c6c477565737449640000000000000000005f82015250565b5f6111c1601783610d80565b91506111cc8261118d565b602082019050919050565b5f6020820190508181035f8301526111ee816111b5565b9050919050565b7f4e487b71000000000000000000000000000000000000000000000000000000005f52603260045260245ffd5b5f819050919050565b61123c611237826108c3565b611222565b82525050565b5f819050919050565b61125c61125782610855565b611242565b82525050565b5f61126d828561122b565b60048201915061127d828461124b565b6020820191508190509392505050565b5f60089050919050565b5f81905092915050565b5f819050919050565b6112b381610855565b82525050565b5f6112c483836112aa565b60208301905092915050565b5f602082019050919050565b6112e58161128d565b6112ef8184611297565b92506112fa826112a1565b805f5b8381101561132a57815161131187826112b9565b965061131c836112d0565b9250506001810190506112fd565b505050505050565b5f61133d828561122b565b60048201915061134d82846112dc565b61010082019150819050939250505056fea2646970667358221220a60c0b4dd48e997baa5c16432639112fb194e23e49f427d47e07891b067a8f6164736f6c634300081d003360a060405234801561000f575f5ffd5b50604051610ffb380380610ffb833981810160405281019061003191906100d6565b807bffffffffffffffffffffffffffffffffffffffffffffffffffffffff19166080817bffffffffffffffffffffffffffffffffffffffffffffffffffffffff19168152505050610101565b5f5ffd5b5f7fffffffff0000000000000000000000000000000000000000000000000000000082169050919050565b6100b581610081565b81146100bf575f5ffd5b50565b5f815190506100d0816100ac565b92915050565b5f602082840312156100eb576100ea61007d565b5b5f6100f8848285016100c2565b91505092915050565b608051610ecd61012e5f395f8181610111015281816101670152818161024201526102a50152610ecd5ff3fe608060405234801561000f575f5ffd5b5060043610610055575f3560e01c8063053c238d146100595780631599ead5146100775780633a115bb11461009357806366cf0e4b146100c3578063ab750e75146100f3575b5f5ffd5b61006161010f565b60405161006e91906106d2565b60405180910390f35b610091600480360381019061008c9190610715565b610133565b005b6100ad60048036038101906100a8919061078f565b610152565b6040516100ba9190610873565b60405180910390f35b6100dd60048036038101906100d89190610893565b6101b7565b6040516100ea9190610873565b60405180910390f35b61010d60048036038101906101089190610932565b6101e1565b005b7f000000000000000000000000000000000000000000000000000000000000000081565b61014f81805f019061014591906109af565b8360200135610203565b50565b61015a610621565b60405180604001604052807f000000000000000000000000000000000000000000000000000000000000000084604051602001610198929190610a51565b6040516020818303038152906040528152602001838152509050919050565b6101bf610621565b6101d96101d46101cf858561038d565b61042f565b610152565b905092915050565b6101fd84846101f86101f3868661038d565b61042f565b610203565b50505050565b82825f9060049261021693929190610a84565b906102219190610ad4565b7bffffffffffffffffffffffffffffffffffffffffffffffffffffffff19167f00000000000000000000000000000000000000000000000000000000000000007bffffffffffffffffffffffffffffffffffffffffffffffffffffffff1916146103015782825f9060049261029893929190610a84565b906102a39190610ad4565b7f00000000000000000000000000000000000000000000000000000000000000006040517fb8b38d4c0000000000000000000000000000000000000000000000000000000081526004016102f8929190610b32565b60405180910390fd5b806040516020016103129190610b59565b604051602081830303815290604052805190602001208383600490809261033b93929190610a84565b604051610349929190610baf565b604051809103902014610388576040517f439cc0cd00000000000000000000000000000000000000000000000000000000815260040160405180910390fd5b505050565b61039561063a565b6040518060a001604052808481526020017fa3acc27117418996340b84e5a90f3ef4c49d22c79e44aad822ec9c313e1eb8e25f1b815260200160405180604001604052805f60028111156103ec576103eb610bc7565b5b81526020015f60ff1681525081526020015f5f1b815260200161042460405180604001604052808681526020015f5f1b81525061054c565b815250905092915050565b5f60028060405161043f90610c3e565b602060405180830381855afa15801561045a573d5f5f3e3d5ffd5b5050506040513d601f19601f8201168201806040525081019061047d9190610c66565b8360600151845f015185602001518660800151601888604001515f015160028111156104ac576104ab610bc7565b5b63ffffffff16901b601889604001516020015160ff1663ffffffff16901b6008600461ffff16901b6040516020016104eb989796959493929190610d15565b6040516020818303038152906040526040516105079190610dd6565b602060405180830381855afa158015610522573d5f5f3e3d5ffd5b5050506040513d601f19601f820116820180604052508101906105459190610c66565b9050919050565b5f60028060405161055c90610e36565b602060405180830381855afa158015610577573d5f5f3e3d5ffd5b5050506040513d601f19601f8201168201806040525081019061059a9190610c66565b835f015184602001516008600261ffff16901b6040516020016105c09493929190610e4a565b6040516020818303038152906040526040516105dc9190610dd6565b602060405180830381855afa1580156105f7573d5f5f3e3d5ffd5b5050506040513d601f19601f8201168201806040525081019061061a9190610c66565b9050919050565b6040518060400160405280606081526020015f81525090565b6040518060a001604052805f81526020015f815260200161065961066b565b81526020015f81526020015f81525090565b60405180604001604052805f600281111561068957610688610bc7565b5b81526020015f60ff1681525090565b5f7fffffffff0000000000000000000000000000000000000000000000000000000082169050919050565b6106cc81610698565b82525050565b5f6020820190506106e55f8301846106c3565b92915050565b5f5ffd5b5f5ffd5b5f5ffd5b5f6040828403121561070c5761070b6106f3565b5b81905092915050565b5f6020828403121561072a576107296106eb565b5b5f82013567ffffffffffffffff811115610747576107466106ef565b5b610753848285016106f7565b91505092915050565b5f819050919050565b61076e8161075c565b8114610778575f5ffd5b50565b5f8135905061078981610765565b92915050565b5f602082840312156107a4576107a36106eb565b5b5f6107b18482850161077b565b91505092915050565b5f81519050919050565b5f82825260208201905092915050565b8281835e5f83830152505050565b5f601f19601f8301169050919050565b5f6107fc826107ba565b61080681856107c4565b93506108168185602086016107d4565b61081f816107e2565b840191505092915050565b6108338161075c565b82525050565b5f604083015f8301518482035f86015261085382826107f2565b9150506020830151610868602086018261082a565b508091505092915050565b5f6020820190508181035f83015261088b8184610839565b905092915050565b5f5f604083850312156108a9576108a86106eb565b5b5f6108b68582860161077b565b92505060206108c78582860161077b565b9150509250929050565b5f5ffd5b5f5ffd5b5f5ffd5b5f5f83601f8401126108f2576108f16108d1565b5b8235905067ffffffffffffffff81111561090f5761090e6108d5565b5b60208301915083600182028301111561092b5761092a6108d9565b5b9250929050565b5f5f5f5f6060858703121561094a576109496106eb565b5b5f85013567ffffffffffffffff811115610967576109666106ef565b5b610973878288016108dd565b945094505060206109868782880161077b565b92505060406109978782880161077b565b91505092959194509250565b5f5ffd5b5f5ffd5b5f5ffd5b5f5f833560016020038436030381126109cb576109ca6109a3565b5b80840192508235915067ffffffffffffffff8211156109ed576109ec6109a7565b5b602083019250600182023603831315610a0957610a086109ab565b5b509250929050565b5f819050919050565b610a2b610a2682610698565b610a11565b82525050565b5f819050919050565b610a4b610a468261075c565b610a31565b82525050565b5f610a5c8285610a1a565b600482019150610a6c8284610a3a565b6020820191508190509392505050565b5f5ffd5b5f5ffd5b5f5f85851115610a9757610a96610a7c565b5b83861115610aa857610aa7610a80565b5b6001850283019150848603905094509492505050565b5f82905092915050565b5f82821b905092915050565b5f610adf8383610abe565b82610aea8135610698565b92506004821015610b2a57610b257fffffffff0000000000000000000000000000000000000000000000000000000083600403600802610ac8565b831692505b505092915050565b5f604082019050610b455f8301856106c3565b610b5260208301846106c3565b9392505050565b5f610b648284610a3a565b60208201915081905092915050565b5f81905092915050565b828183375f83830152505050565b5f610b968385610b73565b9350610ba3838584610b7d565b82840190509392505050565b5f610bbb828486610b8b565b91508190509392505050565b7f4e487b71000000000000000000000000000000000000000000000000000000005f52602160045260245ffd5b7f72697363302e52656365697074436c61696d00000000000000000000000000005f82015250565b5f610c28601283610b73565b9150610c3382610bf4565b601282019050919050565b5f610c4882610c1c565b9150819050919050565b5f81519050610c6081610765565b92915050565b5f60208284031215610c7b57610c7a6106eb565b5b5f610c8884828501610c52565b91505092915050565b5f63ffffffff82169050919050565b5f8160e01b9050919050565b5f610cb682610ca0565b9050919050565b610cce610cc982610c91565b610cac565b82525050565b5f61ffff82169050919050565b5f8160f01b9050919050565b5f610cf782610ce1565b9050919050565b610d0f610d0a82610cd4565b610ced565b82525050565b5f610d20828b610a3a565b602082019150610d30828a610a3a565b602082019150610d408289610a3a565b602082019150610d508288610a3a565b602082019150610d608287610a3a565b602082019150610d708286610cbd565b600482019150610d808285610cbd565b600482019150610d908284610cfe565b6002820191508190509998505050505050505050565b5f610db0826107ba565b610dba8185610b73565b9350610dca8185602086016107d4565b80840191505092915050565b5f610de18284610da6565b915081905092915050565b7f72697363302e4f757470757400000000000000000000000000000000000000005f82015250565b5f610e20600c83610b73565b9150610e2b82610dec565b600c82019050919050565b5f610e4082610e14565b9150819050919050565b5f610e558287610a3a565b602082019150610e658286610a3a565b602082019150610e758285610a3a565b602082019150610e858284610cfe565b6002820191508190509594505050505056fea2646970667358221220b79af4bd22238a2882a6381dc27f98ddbcab341943e08487d241997b8231350864736f6c634300081d0033","linkReferences":{}},"methodIdentifiers":{"_setTestVerifier(address)":"9b8b30c8","accounts(int256)":"6cef4e7f","addBounty(string,uint256,uint256,uint256)":"961bee5a","approveBounty(string)":"0e0965f6","bounties(string)":"3cbef373","bountyExists(string)":"e62e8e8b","bountyToken()":"2d4147e3","closeBounty(string)":"ceef491a","getBounty(string)":"57f56061","increasebountyDeadline(string,uint256)":"1c27b9e4","isVerified(int256)":"fd2d2884","prover()":"32a8f30f","verifier()":"2b7ac3f3","verify(((bytes4,bytes32[8],uint8),bytes32,uint256,(address,bytes4,uint256,uint256,bytes32)),int256,string,string)":"f5f08ef7","verifyAccount(((bytes4,bytes32[8],uint8),bytes32,uint256,(address,bytes4,uint256,uint256,bytes32)),address,int256)":"df6bc523"},"id":46}